{
  "address": "0x146F85F1900193366CFA97109f12e69340daCd91",
  "abi": [
    {
      "inputs": [
        {
          "internalType": "address",
          "name": "vrfCoordinator_",
          "type": "address"
        },
        {
          "internalType": "uint64",
          "name": "subscriptionId_",
          "type": "uint64"
        },
        {
          "internalType": "bytes32",
          "name": "keyHash_",
          "type": "bytes32"
        }
      ],
      "stateMutability": "nonpayable",
      "type": "constructor"
    },
    {
      "inputs": [
        {
          "internalType": "address",
          "name": "have",
          "type": "address"
        },
        {
          "internalType": "address",
          "name": "want",
          "type": "address"
        }
      ],
      "name": "OnlyCoordinatorCanFulfill",
      "type": "error"
    },
    {
      "anonymous": false,
      "inputs": [
        {
          "indexed": true,
          "internalType": "address",
          "name": "owner",
          "type": "address"
        },
        {
          "indexed": true,
          "internalType": "address",
          "name": "approved",
          "type": "address"
        },
        {
          "indexed": true,
          "internalType": "uint256",
          "name": "tokenId",
          "type": "uint256"
        }
      ],
      "name": "Approval",
      "type": "event"
    },
    {
      "anonymous": false,
      "inputs": [
        {
          "indexed": true,
          "internalType": "address",
          "name": "owner",
          "type": "address"
        },
        {
          "indexed": true,
          "internalType": "address",
          "name": "operator",
          "type": "address"
        },
        {
          "indexed": false,
          "internalType": "bool",
          "name": "approved",
          "type": "bool"
        }
      ],
      "name": "ApprovalForAll",
      "type": "event"
    },
    {
      "anonymous": false,
      "inputs": [
        {
          "indexed": true,
          "internalType": "uint256",
          "name": "tokenId",
          "type": "uint256"
        },
        {
          "indexed": false,
          "internalType": "string",
          "name": "tokenURI",
          "type": "string"
        }
      ],
      "name": "CreatedRandomSVG",
      "type": "event"
    },
    {
      "anonymous": false,
      "inputs": [
        {
          "indexed": true,
          "internalType": "uint256",
          "name": "tokenId",
          "type": "uint256"
        },
        {
          "indexed": false,
          "internalType": "uint256",
          "name": "randomWord",
          "type": "uint256"
        }
      ],
      "name": "CreatedUnfinishedRandomSVG",
      "type": "event"
    },
    {
      "anonymous": false,
      "inputs": [
        {
          "indexed": true,
          "internalType": "uint256",
          "name": "requestId",
          "type": "uint256"
        },
        {
          "indexed": true,
          "internalType": "uint256",
          "name": "tokenId",
          "type": "uint256"
        }
      ],
      "name": "RequestedRandomSVG",
      "type": "event"
    },
    {
      "anonymous": false,
      "inputs": [
        {
          "indexed": true,
          "internalType": "address",
          "name": "from",
          "type": "address"
        },
        {
          "indexed": true,
          "internalType": "address",
          "name": "to",
          "type": "address"
        },
        {
          "indexed": true,
          "internalType": "uint256",
          "name": "tokenId",
          "type": "uint256"
        }
      ],
      "name": "Transfer",
      "type": "event"
    },
    {
      "inputs": [
        {
          "internalType": "address",
          "name": "to",
          "type": "address"
        },
        {
          "internalType": "uint256",
          "name": "tokenId",
          "type": "uint256"
        }
      ],
      "name": "approve",
      "outputs": [],
      "stateMutability": "nonpayable",
      "type": "function"
    },
    {
      "inputs": [
        {
          "internalType": "address",
          "name": "owner",
          "type": "address"
        }
      ],
      "name": "balanceOf",
      "outputs": [
        {
          "internalType": "uint256",
          "name": "",
          "type": "uint256"
        }
      ],
      "stateMutability": "view",
      "type": "function"
    },
    {
      "inputs": [
        {
          "internalType": "uint256",
          "name": "",
          "type": "uint256"
        }
      ],
      "name": "colors",
      "outputs": [
        {
          "internalType": "string",
          "name": "",
          "type": "string"
        }
      ],
      "stateMutability": "view",
      "type": "function"
    },
    {
      "inputs": [],
      "name": "create",
      "outputs": [],
      "stateMutability": "payable",
      "type": "function"
    },
    {
      "inputs": [
        {
          "internalType": "uint256",
          "name": "_tokenId",
          "type": "uint256"
        }
      ],
      "name": "finishMint",
      "outputs": [],
      "stateMutability": "nonpayable",
      "type": "function"
    },
    {
      "inputs": [
        {
          "internalType": "uint256",
          "name": "_randomNumber",
          "type": "uint256"
        }
      ],
      "name": "generatePath",
      "outputs": [
        {
          "internalType": "string",
          "name": "pathSVG",
          "type": "string"
        }
      ],
      "stateMutability": "view",
      "type": "function"
    },
    {
      "inputs": [
        {
          "internalType": "uint256",
          "name": "_randomNumber",
          "type": "uint256"
        }
      ],
      "name": "generatePathCommands",
      "outputs": [
        {
          "internalType": "string",
          "name": "pathCommand",
          "type": "string"
        }
      ],
      "stateMutability": "view",
      "type": "function"
    },
    {
      "inputs": [
        {
          "internalType": "uint256",
          "name": "tokenId",
          "type": "uint256"
        }
      ],
      "name": "getApproved",
      "outputs": [
        {
          "internalType": "address",
          "name": "",
          "type": "address"
        }
      ],
      "stateMutability": "view",
      "type": "function"
    },
    {
      "inputs": [
        {
          "internalType": "string",
          "name": "_imageURI",
          "type": "string"
        }
      ],
      "name": "getTokenURI",
      "outputs": [
        {
          "internalType": "string",
          "name": "",
          "type": "string"
        }
      ],
      "stateMutability": "pure",
      "type": "function"
    },
    {
      "inputs": [
        {
          "internalType": "address",
          "name": "owner",
          "type": "address"
        },
        {
          "internalType": "address",
          "name": "operator",
          "type": "address"
        }
      ],
      "name": "isApprovedForAll",
      "outputs": [
        {
          "internalType": "bool",
          "name": "",
          "type": "bool"
        }
      ],
      "stateMutability": "view",
      "type": "function"
    },
    {
      "inputs": [],
      "name": "name",
      "outputs": [
        {
          "internalType": "string",
          "name": "",
          "type": "string"
        }
      ],
      "stateMutability": "view",
      "type": "function"
    },
    {
      "inputs": [
        {
          "internalType": "uint256",
          "name": "tokenId",
          "type": "uint256"
        }
      ],
      "name": "ownerOf",
      "outputs": [
        {
          "internalType": "address",
          "name": "",
          "type": "address"
        }
      ],
      "stateMutability": "view",
      "type": "function"
    },
    {
      "inputs": [
        {
          "internalType": "uint256",
          "name": "",
          "type": "uint256"
        }
      ],
      "name": "pathCommands",
      "outputs": [
        {
          "internalType": "string",
          "name": "",
          "type": "string"
        }
      ],
      "stateMutability": "view",
      "type": "function"
    },
    {
      "inputs": [
        {
          "internalType": "uint256",
          "name": "requestId",
          "type": "uint256"
        },
        {
          "internalType": "uint256[]",
          "name": "randomWords",
          "type": "uint256[]"
        }
      ],
      "name": "rawFulfillRandomWords",
      "outputs": [],
      "stateMutability": "nonpayable",
      "type": "function"
    },
    {
      "inputs": [],
      "name": "requestId",
      "outputs": [
        {
          "internalType": "uint256",
          "name": "",
          "type": "uint256"
        }
      ],
      "stateMutability": "view",
      "type": "function"
    },
    {
      "inputs": [
        {
          "internalType": "uint256",
          "name": "",
          "type": "uint256"
        }
      ],
      "name": "requestIdToSender",
      "outputs": [
        {
          "internalType": "address",
          "name": "",
          "type": "address"
        }
      ],
      "stateMutability": "view",
      "type": "function"
    },
    {
      "inputs": [
        {
          "internalType": "uint256",
          "name": "",
          "type": "uint256"
        }
      ],
      "name": "requestIdToTokenID",
      "outputs": [
        {
          "internalType": "uint256",
          "name": "",
          "type": "uint256"
        }
      ],
      "stateMutability": "view",
      "type": "function"
    },
    {
      "inputs": [
        {
          "internalType": "address",
          "name": "from",
          "type": "address"
        },
        {
          "internalType": "address",
          "name": "to",
          "type": "address"
        },
        {
          "internalType": "uint256",
          "name": "tokenId",
          "type": "uint256"
        }
      ],
      "name": "safeTransferFrom",
      "outputs": [],
      "stateMutability": "nonpayable",
      "type": "function"
    },
    {
      "inputs": [
        {
          "internalType": "address",
          "name": "from",
          "type": "address"
        },
        {
          "internalType": "address",
          "name": "to",
          "type": "address"
        },
        {
          "internalType": "uint256",
          "name": "tokenId",
          "type": "uint256"
        },
        {
          "internalType": "bytes",
          "name": "_data",
          "type": "bytes"
        }
      ],
      "name": "safeTransferFrom",
      "outputs": [],
      "stateMutability": "nonpayable",
      "type": "function"
    },
    {
      "inputs": [
        {
          "internalType": "address",
          "name": "operator",
          "type": "address"
        },
        {
          "internalType": "bool",
          "name": "approved",
          "type": "bool"
        }
      ],
      "name": "setApprovalForAll",
      "outputs": [],
      "stateMutability": "nonpayable",
      "type": "function"
    },
    {
      "inputs": [
        {
          "internalType": "bytes4",
          "name": "interfaceId",
          "type": "bytes4"
        }
      ],
      "name": "supportsInterface",
      "outputs": [
        {
          "internalType": "bool",
          "name": "",
          "type": "bool"
        }
      ],
      "stateMutability": "view",
      "type": "function"
    },
    {
      "inputs": [
        {
          "internalType": "string",
          "name": "_svg",
          "type": "string"
        }
      ],
      "name": "svgToImageURI",
      "outputs": [
        {
          "internalType": "string",
          "name": "",
          "type": "string"
        }
      ],
      "stateMutability": "pure",
      "type": "function"
    },
    {
      "inputs": [],
      "name": "symbol",
      "outputs": [
        {
          "internalType": "string",
          "name": "",
          "type": "string"
        }
      ],
      "stateMutability": "view",
      "type": "function"
    },
    {
      "inputs": [],
      "name": "tokenCounter",
      "outputs": [
        {
          "internalType": "uint256",
          "name": "",
          "type": "uint256"
        }
      ],
      "stateMutability": "view",
      "type": "function"
    },
    {
      "inputs": [
        {
          "internalType": "uint256",
          "name": "",
          "type": "uint256"
        }
      ],
      "name": "tokenIdToRandomNumber",
      "outputs": [
        {
          "internalType": "uint256",
          "name": "",
          "type": "uint256"
        }
      ],
      "stateMutability": "view",
      "type": "function"
    },
    {
      "inputs": [
        {
          "internalType": "uint256",
          "name": "tokenId",
          "type": "uint256"
        }
      ],
      "name": "tokenURI",
      "outputs": [
        {
          "internalType": "string",
          "name": "",
          "type": "string"
        }
      ],
      "stateMutability": "view",
      "type": "function"
    },
    {
      "inputs": [
        {
          "internalType": "address",
          "name": "from",
          "type": "address"
        },
        {
          "internalType": "address",
          "name": "to",
          "type": "address"
        },
        {
          "internalType": "uint256",
          "name": "tokenId",
          "type": "uint256"
        }
      ],
      "name": "transferFrom",
      "outputs": [],
      "stateMutability": "nonpayable",
      "type": "function"
    },
    {
      "inputs": [],
      "name": "withdraw",
      "outputs": [],
      "stateMutability": "nonpayable",
      "type": "function"
    }
  ],
  "transactionHash": "0x52b5b24ad476b182eac1beb4a242c7979ab606d65ee7cb46ecbd18976a6fdcd1",
  "args": [
    "0x6168499c0cFfCaCD319c818142124B7A15E857ab",
    4174,
    "0xd89b2bf150e3b9e13446986e571fb9cab24b13cea0a43ea20a6049a85cc807cc"
  ],
  "numDeployments": 2,
  "solcInputHash": "ad4e8a0865fa04140560a85f97a647b8",
  "bytecode": "0x60a0604052620186a0600b60006101000a81548163ffffffff021916908363ffffffff1602179055506003600b60046101000a81548161ffff021916908361ffff1602179055506001600b60066101000a81548163ffffffff021916908363ffffffff16021790555060405180604001604052806040518060400160405280600181526020017f4d0000000000000000000000000000000000000000000000000000000000000081525081526020016040518060400160405280600181526020017f4c00000000000000000000000000000000000000000000000000000000000000815250815250600d906002620000f99291906200040c565b506040518060a001604052806040518060400160405280600381526020017f726564000000000000000000000000000000000000000000000000000000000081525081526020016040518060400160405280600481526020017f626c75650000000000000000000000000000000000000000000000000000000081525081526020016040518060400160405280600581526020017f677265656e00000000000000000000000000000000000000000000000000000081525081526020016040518060400160405280600681526020017f79656c6c6f77000000000000000000000000000000000000000000000000000081525081526020016040518060400160405280600581526020017f626c61636b000000000000000000000000000000000000000000000000000000815250815250600e9060056200023c92919062000473565b503480156200024a57600080fd5b50604051620053f3380380620053f383398181016040528101906200027091906200063d565b826040518060400160405280600981526020017f52616e646f6d53564700000000000000000000000000000000000000000000008152506040518060400160405280600581526020017f72734e46540000000000000000000000000000000000000000000000000000008152508160009080519060200190620002f5929190620004da565b5080600190805190602001906200030e929190620004da565b5050508073ffffffffffffffffffffffffffffffffffffffff1660808173ffffffffffffffffffffffffffffffffffffffff1660601b815250505082600760006101000a81548173ffffffffffffffffffffffffffffffffffffffff021916908373ffffffffffffffffffffffffffffffffffffffff16021790555033600960006101000a81548173ffffffffffffffffffffffffffffffffffffffff021916908373ffffffffffffffffffffffffffffffffffffffff16021790555081600960146101000a81548167ffffffffffffffff021916908367ffffffffffffffff16021790555080600a81905550600060088190555050505062000798565b82805482825590600052602060002090810192821562000460579160200282015b828111156200045f5782518290805190602001906200044e929190620004da565b50916020019190600101906200042d565b5b5090506200046f91906200056b565b5090565b828054828255906000526020600020908101928215620004c7579160200282015b82811115620004c6578251829080519060200190620004b5929190620004da565b509160200191906001019062000494565b5b509050620004d691906200056b565b5090565b828054620004e890620006e5565b90600052602060002090601f0160209004810192826200050c576000855562000558565b82601f106200052757805160ff191683800117855562000558565b8280016001018555821562000558579182015b82811115620005575782518255916020019190600101906200053a565b5b50905062000567919062000593565b5090565b5b808211156200058f5760008181620005859190620005b2565b506001016200056c565b5090565b5b80821115620005ae57600081600090555060010162000594565b5090565b508054620005c090620006e5565b6000825580601f10620005d45750620005f5565b601f016020900490600052602060002090810190620005f4919062000593565b5b50565b60008151905062000609816200074a565b92915050565b600081519050620006208162000764565b92915050565b60008151905062000637816200077e565b92915050565b6000806000606084860312156200065357600080fd5b60006200066386828701620005f8565b9350506020620006768682870162000626565b925050604062000689868287016200060f565b9150509250925092565b6000620006a082620006b1565b9050919050565b6000819050919050565b600073ffffffffffffffffffffffffffffffffffffffff82169050919050565b600067ffffffffffffffff82169050919050565b60006002820490506001821680620006fe57607f821691505b602082108114156200071557620007146200071b565b5b50919050565b7f4e487b7100000000000000000000000000000000000000000000000000000000600052602260045260246000fd5b620007558162000693565b81146200076157600080fd5b50565b6200076f81620006a7565b81146200077b57600080fd5b50565b6200078981620006d1565b81146200079557600080fd5b50565b60805160601c614c35620007be60003960008181610a530152610aa70152614c356000f3fe6080604052600436106101b65760003560e01c806370a08231116100ec578063b88d4fde1161008a578063d082e38111610064578063d082e3811461068b578063d3e1f6e3146106b6578063e985e9c5146106f3578063efc81a8c14610730576101b6565b8063b88d4fde146105e8578063bd11f69d14610611578063c87b56dd1461064e576101b6565b8063955968d4116100c6578063955968d41461051a57806395d89b41146105575780639c1cd79514610582578063a22cb465146105bf576101b6565b806370a08231146104635780638e2de4d3146104a05780638f00587d146104dd576101b6565b806330d871c6116101595780633cfb2987116101335780633cfb29871461039757806342842e0e146103d4578063624194c7146103fd5780636352211e14610426576101b6565b806330d871c61461030657806333af5989146103435780633ccfd60b14610380576101b6565b8063081812fc11610195578063081812fc1461024e578063095ea7b31461028b5780631fe543e3146102b457806323b872dd146102dd576101b6565b80626d6cae146101bb57806301ffc9a7146101e657806306fdde0314610223575b600080fd5b3480156101c757600080fd5b506101d061073a565b6040516101dd9190613e4c565b60405180910390f35b3480156101f257600080fd5b5061020d600480360381019061020891906132a0565b610740565b60405161021a9190613afc565b60405180910390f35b34801561022f57600080fd5b50610238610822565b6040516102459190613b6a565b60405180910390f35b34801561025a57600080fd5b5061027560048036038101906102709190613333565b6108b4565b6040516102829190613a6c565b60405180910390f35b34801561029757600080fd5b506102b260048036038101906102ad9190613264565b610939565b005b3480156102c057600080fd5b506102db60048036038101906102d69190613385565b610a51565b005b3480156102e957600080fd5b5061030460048036038101906102ff919061315e565b610b11565b005b34801561031257600080fd5b5061032d600480360381019061032891906132f2565b610b71565b60405161033a9190613b6a565b60405180910390f35b34801561034f57600080fd5b5061036a60048036038101906103659190613333565b610c0a565b6040516103779190613b6a565b60405180910390f35b34801561038c57600080fd5b50610395610df5565b005b3480156103a357600080fd5b506103be60048036038101906103b99190613333565b610ef0565b6040516103cb9190613b6a565b60405180910390f35b3480156103e057600080fd5b506103fb60048036038101906103f6919061315e565b61108b565b005b34801561040957600080fd5b50610424600480360381019061041f9190613333565b6110ab565b005b34801561043257600080fd5b5061044d60048036038101906104489190613333565b611214565b60405161045a9190613a6c565b60405180910390f35b34801561046f57600080fd5b5061048a600480360381019061048591906130f9565b6112c6565b6040516104979190613e4c565b60405180910390f35b3480156104ac57600080fd5b506104c760048036038101906104c29190613333565b61137e565b6040516104d49190613a6c565b60405180910390f35b3480156104e957600080fd5b5061050460048036038101906104ff9190613333565b6113b1565b6040516105119190613e4c565b60405180910390f35b34801561052657600080fd5b50610541600480360381019061053c9190613333565b6113c9565b60405161054e9190613b6a565b60405180910390f35b34801561056357600080fd5b5061056c611475565b6040516105799190613b6a565b60405180910390f35b34801561058e57600080fd5b506105a960048036038101906105a49190613333565b611507565b6040516105b69190613e4c565b60405180910390f35b3480156105cb57600080fd5b506105e660048036038101906105e19190613228565b61151f565b005b3480156105f457600080fd5b5061060f600480360381019061060a91906131ad565b611535565b005b34801561061d57600080fd5b5061063860048036038101906106339190613333565b611597565b6040516106459190613b6a565b60405180910390f35b34801561065a57600080fd5b5061067560048036038101906106709190613333565b611643565b6040516106829190613b6a565b60405180910390f35b34801561069757600080fd5b506106a0611795565b6040516106ad9190613e4c565b60405180910390f35b3480156106c257600080fd5b506106dd60048036038101906106d891906132f2565b61179b565b6040516106ea9190613b6a565b60405180910390f35b3480156106ff57600080fd5b5061071a60048036038101906107159190613122565b611828565b6040516107279190613afc565b60405180910390f35b6107386118bc565b005b600c5481565b60007f80ac58cd000000000000000000000000000000000000000000000000000000007bffffffffffffffffffffffffffffffffffffffffffffffffffffffff1916827bffffffffffffffffffffffffffffffffffffffffffffffffffffffff1916148061080b57507f5b5e139f000000000000000000000000000000000000000000000000000000007bffffffffffffffffffffffffffffffffffffffffffffffffffffffff1916827bffffffffffffffffffffffffffffffffffffffffffffffffffffffff1916145b8061081b575061081a82611ace565b5b9050919050565b60606000805461083190614247565b80601f016020809104026020016040519081016040528092919081815260200182805461085d90614247565b80156108aa5780601f1061087f576101008083540402835291602001916108aa565b820191906000526020600020905b81548152906001019060200180831161088d57829003601f168201915b5050505050905090565b60006108bf82611b38565b6108fe576040517f08c379a00000000000000000000000000000000000000000000000000000000081526004016108f590613dac565b60405180910390fd5b6004600083815260200190815260200160002060009054906101000a900473ffffffffffffffffffffffffffffffffffffffff169050919050565b600061094482611214565b90508073ffffffffffffffffffffffffffffffffffffffff168373ffffffffffffffffffffffffffffffffffffffff1614156109b5576040517f08c379a00000000000000000000000000000000000000000000000000000000081526004016109ac90613dec565b60405180910390fd5b8073ffffffffffffffffffffffffffffffffffffffff166109d4611ba4565b73ffffffffffffffffffffffffffffffffffffffff161480610a035750610a02816109fd611ba4565b611828565b5b610a42576040517f08c379a0000000000000000000000000000000000000000000000000000000008152600401610a3990613cec565b60405180910390fd5b610a4c8383611bac565b505050565b7f000000000000000000000000000000000000000000000000000000000000000073ffffffffffffffffffffffffffffffffffffffff163373ffffffffffffffffffffffffffffffffffffffff1614610b0357337f00000000000000000000000000000000000000000000000000000000000000006040517f1cf993f4000000000000000000000000000000000000000000000000000000008152600401610afa929190613a87565b60405180910390fd5b610b0d8282611c65565b5050565b610b22610b1c611ba4565b82611e1c565b610b61576040517f08c379a0000000000000000000000000000000000000000000000000000000008152600401610b5890613e2c565b60405180910390fd5b610b6c838383611efa565b505050565b606060006040518060400160405280601a81526020017f646174613a696d6167652f7376672b786d6c3b6261736536342c00000000000081525090506000610bd784604051602001610bc39190613940565b604051602081830303815290604052612161565b905060008282604051602001610bee929190613957565b6040516020818303038152906040529050809350505050919050565b606060006001600584610c1d91906142f3565b610c279190613fd8565b90506040518060400160405280600981526020017f3c7061746820643d270000000000000000000000000000000000000000000000815250915060005b81811015610ce9576000610caf85836101f4610c809190613fd8565b604051602001610c91929190613eb9565b6040516020818303038152906040528051906020012060001c610ef0565b90508381604051602001610cc4929190613957565b6040516020818303038152906040529350508080610ce1906142aa565b915050610c64565b506000600e808054905085610cfe91906142f3565b81548110610d35577f4e487b7100000000000000000000000000000000000000000000000000000000600052603260045260246000fd5b906000526020600020018054610d4a90614247565b80601f0160208091040260200160405190810160405280929190818152602001828054610d7690614247565b8015610dc35780601f10610d9857610100808354040283529160200191610dc3565b820191906000526020600020905b815481529060010190602001808311610da657829003601f168201915b505050505090508281604051602001610ddd92919061397b565b60405160208183030381529060405292505050919050565b600960009054906101000a900473ffffffffffffffffffffffffffffffffffffffff1673ffffffffffffffffffffffffffffffffffffffff163373ffffffffffffffffffffffffffffffffffffffff1614610e85576040517f08c379a0000000000000000000000000000000000000000000000000000000008152600401610e7c90613e0c565b60405180910390fd5b600960009054906101000a900473ffffffffffffffffffffffffffffffffffffffff1673ffffffffffffffffffffffffffffffffffffffff166108fc479081150290604051600060405180830381858888f19350505050158015610eed573d6000803e3d6000fd5b50565b6060600d808054905083610f0491906142f3565b81548110610f3b577f4e487b7100000000000000000000000000000000000000000000000000000000600052603260045260246000fd5b906000526020600020018054610f5090614247565b80601f0160208091040260200160405190810160405280929190818152602001828054610f7c90614247565b8015610fc95780601f10610f9e57610100808354040283529160200191610fc9565b820191906000526020600020905b815481529060010190602001808311610fac57829003601f168201915b5050505050905060006101f4836103e8604051602001610fea929190613e67565b6040516020818303038152906040528051906020012060001c61100d91906142f3565b905060006101f4846103e9604051602001611029929190613e90565b6040516020818303038152906040528051906020012060001c61104c91906142f3565b90508261105883612300565b61106183612300565b604051602001611073939291906139b5565b60405160208183030381529060405292505050919050565b6110a683838360405180602001604052806000815250611535565b505050565b60006110b682611643565b5111156110f8576040517f08c379a00000000000000000000000000000000000000000000000000000000081526004016110ef90613cac565b60405180910390fd5b806008541161113c576040517f08c379a000000000000000000000000000000000000000000000000000000000815260040161113390613bec565b60405180910390fd5b6000601160008381526020019081526020016000205411611192576040517f08c379a000000000000000000000000000000000000000000000000000000000815260040161118990613c0c565b60405180910390fd5b60006011600083815260200190815260200160002054905060006111b5826124d5565b905060006111c282610b71565b90506111d6846111d18361179b565b6125b3565b837f15a6487b7915a7116ce2a61d43b17e9b47484b1931f3c79f2f3d139b307b3893836040516112069190613b6a565b60405180910390a250505050565b6000806002600084815260200190815260200160002060009054906101000a900473ffffffffffffffffffffffffffffffffffffffff169050600073ffffffffffffffffffffffffffffffffffffffff168173ffffffffffffffffffffffffffffffffffffffff1614156112bd576040517f08c379a00000000000000000000000000000000000000000000000000000000081526004016112b490613d2c565b60405180910390fd5b80915050919050565b60008073ffffffffffffffffffffffffffffffffffffffff168273ffffffffffffffffffffffffffffffffffffffff161415611337576040517f08c379a000000000000000000000000000000000000000000000000000000000815260040161132e90613d0c565b60405180910390fd5b600360008373ffffffffffffffffffffffffffffffffffffffff1673ffffffffffffffffffffffffffffffffffffffff168152602001908152602001600020549050919050565b600f6020528060005260406000206000915054906101000a900473ffffffffffffffffffffffffffffffffffffffff1681565b60106020528060005260406000206000915090505481565b600d81815481106113d957600080fd5b9060005260206000200160009150905080546113f490614247565b80601f016020809104026020016040519081016040528092919081815260200182805461142090614247565b801561146d5780601f106114425761010080835404028352916020019161146d565b820191906000526020600020905b81548152906001019060200180831161145057829003601f168201915b505050505081565b60606001805461148490614247565b80601f01602080910402602001604051908101604052809291908181526020018280546114b090614247565b80156114fd5780601f106114d2576101008083540402835291602001916114fd565b820191906000526020600020905b8154815290600101906020018083116114e057829003601f168201915b5050505050905090565b60116020528060005260406000206000915090505481565b61153161152a611ba4565b8383612627565b5050565b611546611540611ba4565b83611e1c565b611585576040517f08c379a000000000000000000000000000000000000000000000000000000000815260040161157c90613e2c565b60405180910390fd5b61159184848484612794565b50505050565b600e81815481106115a757600080fd5b9060005260206000200160009150905080546115c290614247565b80601f01602080910402602001604051908101604052809291908181526020018280546115ee90614247565b801561163b5780601f106116105761010080835404028352916020019161163b565b820191906000526020600020905b81548152906001019060200180831161161e57829003601f168201915b505050505081565b606061164e82611b38565b61168d576040517f08c379a000000000000000000000000000000000000000000000000000000000815260040161168490613d8c565b60405180910390fd5b60006006600084815260200190815260200160002080546116ad90614247565b80601f01602080910402602001604051908101604052809291908181526020018280546116d990614247565b80156117265780601f106116fb57610100808354040283529160200191611726565b820191906000526020600020905b81548152906001019060200180831161170957829003601f168201915b5050505050905060006117376127f0565b905060008151141561174d578192505050611790565b60008251111561178257808260405160200161176a929190613957565b60405160208183030381529060405292505050611790565b61178b84612807565b925050505b919050565b60085481565b606060006040518060400160405280601d81526020017f646174613a6170706c69636174696f6e2f6a736f6e3b6261736536342c000000815250905080611800846040516020016117ec9190613a1e565b604051602081830303815290604052612161565b604051602001611811929190613957565b604051602081830303815290604052915050919050565b6000600560008473ffffffffffffffffffffffffffffffffffffffff1673ffffffffffffffffffffffffffffffffffffffff16815260200190815260200160002060008373ffffffffffffffffffffffffffffffffffffffff1673ffffffffffffffffffffffffffffffffffffffff16815260200190815260200160002060009054906101000a900460ff16905092915050565b67016345785d8a0000341015611907576040517f08c379a00000000000000000000000000000000000000000000000000000000081526004016118fe90613c4c565b60405180910390fd5b600760009054906101000a900473ffffffffffffffffffffffffffffffffffffffff1673ffffffffffffffffffffffffffffffffffffffff16635d3b1d30600a54600960149054906101000a900467ffffffffffffffff16600b60049054906101000a900461ffff16600b60009054906101000a900463ffffffff16600b60069054906101000a900463ffffffff166040518663ffffffff1660e01b81526004016119b6959493929190613b17565b602060405180830381600087803b1580156119d057600080fd5b505af11580156119e4573d6000803e3d6000fd5b505050506040513d601f19601f82011682018060405250810190611a08919061335c565b600c8190555033600f6000600c54815260200190815260200160002060006101000a81548173ffffffffffffffffffffffffffffffffffffffff021916908373ffffffffffffffffffffffffffffffffffffffff160217905550600060085490508060106000600c5481526020019081526020016000208190555060086000815480929190611a96906142aa565b919050555080600c547faca86698215b64dacd2590b61d4f7880ecc1e9d6094bdec61d537a45777a9ef860405160405180910390a350565b60007f01ffc9a7000000000000000000000000000000000000000000000000000000007bffffffffffffffffffffffffffffffffffffffffffffffffffffffff1916827bffffffffffffffffffffffffffffffffffffffffffffffffffffffff1916149050919050565b60008073ffffffffffffffffffffffffffffffffffffffff166002600084815260200190815260200160002060009054906101000a900473ffffffffffffffffffffffffffffffffffffffff1673ffffffffffffffffffffffffffffffffffffffff1614159050919050565b600033905090565b816004600083815260200190815260200160002060006101000a81548173ffffffffffffffffffffffffffffffffffffffff021916908373ffffffffffffffffffffffffffffffffffffffff160217905550808273ffffffffffffffffffffffffffffffffffffffff16611c1f83611214565b73ffffffffffffffffffffffffffffffffffffffff167f8c5be1e5ebec7d5bd14f71427d1e84f3dd0314c0f7b2291e5b200ac8c7c3b92560405160405180910390a45050565b600081600081518110611ca1577f4e487b7100000000000000000000000000000000000000000000000000000000600052603260045260246000fd5b60200260200101511415611cea576040517f08c379a0000000000000000000000000000000000000000000000000000000008152600401611ce190613ccc565b60405180910390fd5b6000600f600084815260200190815260200160002060009054906101000a900473ffffffffffffffffffffffffffffffffffffffff169050600060106000858152602001908152602001600020549050611d4482826128ae565b82600081518110611d7e577f4e487b7100000000000000000000000000000000000000000000000000000000600052603260045260246000fd5b60200260200101516011600083815260200190815260200160002081905550807faad5362ce528ed941024b95d4c18dfd49b8503e1f586a5c353631d98c2af41b784600081518110611df9577f4e487b7100000000000000000000000000000000000000000000000000000000600052603260045260246000fd5b6020026020010151604051611e0e9190613e4c565b60405180910390a250505050565b6000611e2782611b38565b611e66576040517f08c379a0000000000000000000000000000000000000000000000000000000008152600401611e5d90613c8c565b60405180910390fd5b6000611e7183611214565b90508073ffffffffffffffffffffffffffffffffffffffff168473ffffffffffffffffffffffffffffffffffffffff161480611eb35750611eb28185611828565b5b80611ef157508373ffffffffffffffffffffffffffffffffffffffff16611ed9846108b4565b73ffffffffffffffffffffffffffffffffffffffff16145b91505092915050565b8273ffffffffffffffffffffffffffffffffffffffff16611f1a82611214565b73ffffffffffffffffffffffffffffffffffffffff1614611f70576040517f08c379a0000000000000000000000000000000000000000000000000000000008152600401611f6790613bac565b60405180910390fd5b600073ffffffffffffffffffffffffffffffffffffffff168273ffffffffffffffffffffffffffffffffffffffff161415611fe0576040517f08c379a0000000000000000000000000000000000000000000000000000000008152600401611fd790613c2c565b60405180910390fd5b611feb8383836128cc565b611ff6600082611bac565b6001600360008573ffffffffffffffffffffffffffffffffffffffff1673ffffffffffffffffffffffffffffffffffffffff168152602001908152602001600020600082825461204691906140f0565b925050819055506001600360008473ffffffffffffffffffffffffffffffffffffffff1673ffffffffffffffffffffffffffffffffffffffff168152602001908152602001600020600082825461209d9190613fd8565b92505081905550816002600083815260200190815260200160002060006101000a81548173ffffffffffffffffffffffffffffffffffffffff021916908373ffffffffffffffffffffffffffffffffffffffff160217905550808273ffffffffffffffffffffffffffffffffffffffff168473ffffffffffffffffffffffffffffffffffffffff167fddf252ad1be2c89b69c2b068fc378daa952ba7f163c4a11628f55a4df523b3ef60405160405180910390a461215c8383836128d1565b505050565b6060600082511415612184576040518060200160405280600081525090506122fb565b6000604051806060016040528060408152602001614b7f60409139905060006003600285516121b39190613fd8565b6121bd9190614065565b60046121c99190614096565b905060006020826121da9190613fd8565b67ffffffffffffffff811115612219577f4e487b7100000000000000000000000000000000000000000000000000000000600052604160045260246000fd5b6040519080825280601f01601f19166020018201604052801561224b5781602001600182028036833780820191505090505b509050818152600183018586518101602084015b818310156122ba576003830192508251603f8160121c168501518253600182019150603f81600c1c168501518253600182019150603f8160061c168501518253600182019150603f811685015182536001820191505061225f565b6003895106600181146122d457600281146122e4576122ef565b613d3d60f01b60028303526122ef565b603d60f81b60018303525b50505050508093505050505b919050565b60606000821415612348576040518060400160405280600181526020017f300000000000000000000000000000000000000000000000000000000000000081525090506124d0565b600082905060005b6000821461237a578080612363906142aa565b915050600a826123739190614065565b9150612350565b60008167ffffffffffffffff8111156123bc577f4e487b7100000000000000000000000000000000000000000000000000000000600052604160045260246000fd5b6040519080825280601f01601f1916602001820160405280156123ee5781602001600182028036833780820191505090505b50905060008290505b600086146124c85760018161240c91906140f0565b90506000600a808861241e9190614065565b6124289190614096565b8761243391906140f0565b603061243f919061402e565b905060008160f81b905080848481518110612483577f4e487b7100000000000000000000000000000000000000000000000000000000600052603260045260246000fd5b60200101907effffffffffffffffffffffffffffffffffffffffffffffffffffffffffffff1916908160001a905350600a886124bf9190614065565b975050506123f7565b819450505050505b919050565b6060600060016005846124e891906142f3565b6124f29190613fd8565b9050604051806080016040528060418152602001614bbf60419139915060005b8181101561258a5760006125508583604051602001612532929190613eb9565b6040516020818303038152906040528051906020012060001c610c0a565b90508381604051602001612565929190613957565b6040516020818303038152906040529350508080612582906142aa565b915050612512565b508160405160200161259c91906139fc565b604051602081830303815290604052915050919050565b6125bc82611b38565b6125fb576040517f08c379a00000000000000000000000000000000000000000000000000000000081526004016125f290613d4c565b60405180910390fd5b80600660008481526020019081526020016000209080519060200190612622929190612e72565b505050565b8173ffffffffffffffffffffffffffffffffffffffff168373ffffffffffffffffffffffffffffffffffffffff161415612696576040517f08c379a000000000000000000000000000000000000000000000000000000000815260040161268d90613c6c565b60405180910390fd5b80600560008573ffffffffffffffffffffffffffffffffffffffff1673ffffffffffffffffffffffffffffffffffffffff16815260200190815260200160002060008473ffffffffffffffffffffffffffffffffffffffff1673ffffffffffffffffffffffffffffffffffffffff16815260200190815260200160002060006101000a81548160ff0219169083151502179055508173ffffffffffffffffffffffffffffffffffffffff168373ffffffffffffffffffffffffffffffffffffffff167f17307eab39ab6107e8899845ad3d59bd9653f200f220920489ca2b5937696c31836040516127879190613afc565b60405180910390a3505050565b61279f848484611efa565b6127ab848484846128d6565b6127ea576040517f08c379a00000000000000000000000000000000000000000000000000000000081526004016127e190613b8c565b60405180910390fd5b50505050565b606060405180602001604052806000815250905090565b606061281282611b38565b612851576040517f08c379a000000000000000000000000000000000000000000000000000000000815260040161284890613dcc565b60405180910390fd5b600061285b6127f0565b9050600081511161287b57604051806020016040528060008152506128a6565b8061288584612a6d565b604051602001612896929190613957565b6040516020818303038152906040525b915050919050565b6128c8828260405180602001604052806000815250612c1a565b5050565b505050565b505050565b60006128f78473ffffffffffffffffffffffffffffffffffffffff16612c75565b15612a60578373ffffffffffffffffffffffffffffffffffffffff1663150b7a02612920611ba4565b8786866040518563ffffffff1660e01b81526004016129429493929190613ab0565b602060405180830381600087803b15801561295c57600080fd5b505af192505050801561298d57506040513d601f19601f8201168201806040525081019061298a91906132c9565b60015b612a10573d80600081146129bd576040519150601f19603f3d011682016040523d82523d6000602084013e6129c2565b606091505b50600081511415612a08576040517f08c379a00000000000000000000000000000000000000000000000000000000081526004016129ff90613b8c565b60405180910390fd5b805181602001fd5b63150b7a0260e01b7bffffffffffffffffffffffffffffffffffffffffffffffffffffffff1916817bffffffffffffffffffffffffffffffffffffffffffffffffffffffff191614915050612a65565b600190505b949350505050565b60606000821415612ab5576040518060400160405280600181526020017f30000000000000000000000000000000000000000000000000000000000000008152509050612c15565b600082905060005b60008214612ae7578080612ad0906142aa565b915050600a82612ae09190614065565b9150612abd565b60008167ffffffffffffffff811115612b29577f4e487b7100000000000000000000000000000000000000000000000000000000600052604160045260246000fd5b6040519080825280601f01601f191660200182016040528015612b5b5781602001600182028036833780820191505090505b5090505b60008514612c0e57600182612b7491906140f0565b9150600a85612b8391906142f3565b6030612b8f9190613fd8565b60f81b818381518110612bcb577f4e487b7100000000000000000000000000000000000000000000000000000000600052603260045260246000fd5b60200101907effffffffffffffffffffffffffffffffffffffffffffffffffffffffffffff1916908160001a905350600a85612c079190614065565b9450612b5f565b8093505050505b919050565b612c248383612c98565b612c3160008484846128d6565b612c70576040517f08c379a0000000000000000000000000000000000000000000000000000000008152600401612c6790613b8c565b60405180910390fd5b505050565b6000808273ffffffffffffffffffffffffffffffffffffffff163b119050919050565b600073ffffffffffffffffffffffffffffffffffffffff168273ffffffffffffffffffffffffffffffffffffffff161415612d08576040517f08c379a0000000000000000000000000000000000000000000000000000000008152600401612cff90613d6c565b60405180910390fd5b612d1181611b38565b15612d51576040517f08c379a0000000000000000000000000000000000000000000000000000000008152600401612d4890613bcc565b60405180910390fd5b612d5d600083836128cc565b6001600360008473ffffffffffffffffffffffffffffffffffffffff1673ffffffffffffffffffffffffffffffffffffffff1681526020019081526020016000206000828254612dad9190613fd8565b92505081905550816002600083815260200190815260200160002060006101000a81548173ffffffffffffffffffffffffffffffffffffffff021916908373ffffffffffffffffffffffffffffffffffffffff160217905550808273ffffffffffffffffffffffffffffffffffffffff16600073ffffffffffffffffffffffffffffffffffffffff167fddf252ad1be2c89b69c2b068fc378daa952ba7f163c4a11628f55a4df523b3ef60405160405180910390a4612e6e600083836128d1565b5050565b828054612e7e90614247565b90600052602060002090601f016020900481019282612ea05760008555612ee7565b82601f10612eb957805160ff1916838001178555612ee7565b82800160010185558215612ee7579182015b82811115612ee6578251825591602001919060010190612ecb565b5b509050612ef49190612ef8565b5090565b5b80821115612f11576000816000905550600101612ef9565b5090565b6000612f28612f2384613f07565b613ee2565b90508083825260208201905082856020860282011115612f4757600080fd5b60005b85811015612f775781612f5d88826130cf565b845260208401935060208301925050600181019050612f4a565b5050509392505050565b6000612f94612f8f84613f33565b613ee2565b905082815260208101848484011115612fac57600080fd5b612fb7848285614205565b509392505050565b6000612fd2612fcd84613f64565b613ee2565b905082815260208101848484011115612fea57600080fd5b612ff5848285614205565b509392505050565b60008135905061300c81614b22565b92915050565b600082601f83011261302357600080fd5b8135613033848260208601612f15565b91505092915050565b60008135905061304b81614b39565b92915050565b60008135905061306081614b50565b92915050565b60008151905061307581614b50565b92915050565b600082601f83011261308c57600080fd5b813561309c848260208601612f81565b91505092915050565b600082601f8301126130b657600080fd5b81356130c6848260208601612fbf565b91505092915050565b6000813590506130de81614b67565b92915050565b6000815190506130f381614b67565b92915050565b60006020828403121561310b57600080fd5b600061311984828501612ffd565b91505092915050565b6000806040838503121561313557600080fd5b600061314385828601612ffd565b925050602061315485828601612ffd565b9150509250929050565b60008060006060848603121561317357600080fd5b600061318186828701612ffd565b935050602061319286828701612ffd565b92505060406131a3868287016130cf565b9150509250925092565b600080600080608085870312156131c357600080fd5b60006131d187828801612ffd565b94505060206131e287828801612ffd565b93505060406131f3878288016130cf565b925050606085013567ffffffffffffffff81111561321057600080fd5b61321c8782880161307b565b91505092959194509250565b6000806040838503121561323b57600080fd5b600061324985828601612ffd565b925050602061325a8582860161303c565b9150509250929050565b6000806040838503121561327757600080fd5b600061328585828601612ffd565b9250506020613296858286016130cf565b9150509250929050565b6000602082840312156132b257600080fd5b60006132c084828501613051565b91505092915050565b6000602082840312156132db57600080fd5b60006132e984828501613066565b91505092915050565b60006020828403121561330457600080fd5b600082013567ffffffffffffffff81111561331e57600080fd5b61332a848285016130a5565b91505092915050565b60006020828403121561334557600080fd5b6000613353848285016130cf565b91505092915050565b60006020828403121561336e57600080fd5b600061337c848285016130e4565b91505092915050565b6000806040838503121561339857600080fd5b60006133a6858286016130cf565b925050602083013567ffffffffffffffff8111156133c357600080fd5b6133cf85828601613012565b9150509250929050565b6133e281614124565b82525050565b6133f181614136565b82525050565b61340081614142565b82525050565b600061341182613f95565b61341b8185613fab565b935061342b818560208601614214565b613434816143e0565b840191505092915050565b613448816141e1565b82525050565b613457816141f3565b82525050565b600061346882613fa0565b6134728185613fbc565b9350613482818560208601614214565b61348b816143e0565b840191505092915050565b60006134a182613fa0565b6134ab8185613fcd565b93506134bb818560208601614214565b80840191505092915050565b60006134d4600883613fcd565b91506134df826143f1565b600882019050919050565b60006134f7603283613fbc565b91506135028261441a565b604082019050919050565b600061351a602583613fbc565b915061352582614469565b604082019050919050565b600061353d601c83613fbc565b9150613548826144b8565b602082019050919050565b6000613560601f83613fbc565b915061356b826144e1565b602082019050919050565b6000613583601483613fcd565b915061358e8261450a565b601482019050919050565b60006135a6602f83613fbc565b91506135b182614533565b604082019050919050565b60006135c9602483613fbc565b91506135d482614582565b604082019050919050565b60006135ec600f83613fbc565b91506135f7826145d1565b602082019050919050565b600061360f601983613fbc565b915061361a826145fa565b602082019050919050565b6000613632602c83613fbc565b915061363d82614623565b604082019050919050565b6000613655601d83613fcd565b915061366082614672565b601d82019050919050565b6000613678601483613fbc565b91506136838261469b565b602082019050919050565b600061369b600183613fcd565b91506136a6826146c4565b600182019050919050565b60006136be600383613fcd565b91506136c9826146ed565b600382019050919050565b60006136e1601683613fbc565b91506136ec82614716565b602082019050919050565b6000613704603883613fbc565b915061370f8261473f565b604082019050919050565b6000613727602a83613fbc565b91506137328261478e565b604082019050919050565b600061374a602983613fbc565b9150613755826147dd565b604082019050919050565b600061376d602e83613fbc565b91506137788261482c565b604082019050919050565b6000613790600283613fcd565b915061379b8261487b565b600282019050919050565b60006137b3602683613fcd565b91506137be826148a4565b602682019050919050565b60006137d6602083613fbc565b91506137e1826148f3565b602082019050919050565b60006137f9603183613fbc565b91506138048261491c565b604082019050919050565b600061381c602c83613fbc565b91506138278261496b565b604082019050919050565b600061383f602f83613fbc565b915061384a826149ba565b604082019050919050565b6000613862601283613fcd565b915061386d82614a09565b601282019050919050565b6000613885602183613fbc565b915061389082614a32565b604082019050919050565b60006138a8600983613fbc565b91506138b382614a81565b602082019050919050565b60006138cb603183613fbc565b91506138d682614aaa565b604082019050919050565b60006138ee600683613fcd565b91506138f982614af9565b600682019050919050565b61390d81614178565b82525050565b61391c816141a6565b82525050565b61392b816141b0565b82525050565b61393a816141c0565b82525050565b600061394c8284613496565b915081905092915050565b60006139638285613496565b915061396f8284613496565b91508190509392505050565b60006139878285613496565b915061399282613648565b915061399e8284613496565b91506139a9826136b1565b91508190509392505050565b60006139c18286613496565b91506139cc8261368e565b91506139d88285613496565b91506139e38261368e565b91506139ef8284613496565b9150819050949350505050565b6000613a088284613496565b9150613a13826138e1565b915081905092915050565b6000613a2982613576565b9150613a34826137a6565b9150613a3f82613855565b9150613a4a826134c7565b9150613a568284613496565b9150613a6182613783565b915081905092915050565b6000602082019050613a8160008301846133d9565b92915050565b6000604082019050613a9c60008301856133d9565b613aa960208301846133d9565b9392505050565b6000608082019050613ac560008301876133d9565b613ad260208301866133d9565b613adf6040830185613913565b8181036060830152613af18184613406565b905095945050505050565b6000602082019050613b1160008301846133e8565b92915050565b600060a082019050613b2c60008301886133f7565b613b396020830187613931565b613b466040830186613904565b613b536060830185613922565b613b606080830184613922565b9695505050505050565b60006020820190508181036000830152613b84818461345d565b905092915050565b60006020820190508181036000830152613ba5816134ea565b9050919050565b60006020820190508181036000830152613bc58161350d565b9050919050565b60006020820190508181036000830152613be581613530565b9050919050565b60006020820190508181036000830152613c0581613553565b9050919050565b60006020820190508181036000830152613c2581613599565b9050919050565b60006020820190508181036000830152613c45816135bc565b9050919050565b60006020820190508181036000830152613c65816135df565b9050919050565b60006020820190508181036000830152613c8581613602565b9050919050565b60006020820190508181036000830152613ca581613625565b9050919050565b60006020820190508181036000830152613cc58161366b565b9050919050565b60006020820190508181036000830152613ce5816136d4565b9050919050565b60006020820190508181036000830152613d05816136f7565b9050919050565b60006020820190508181036000830152613d258161371a565b9050919050565b60006020820190508181036000830152613d458161373d565b9050919050565b60006020820190508181036000830152613d6581613760565b9050919050565b60006020820190508181036000830152613d85816137c9565b9050919050565b60006020820190508181036000830152613da5816137ec565b9050919050565b60006020820190508181036000830152613dc58161380f565b9050919050565b60006020820190508181036000830152613de581613832565b9050919050565b60006020820190508181036000830152613e0581613878565b9050919050565b60006020820190508181036000830152613e258161389b565b9050919050565b60006020820190508181036000830152613e45816138be565b9050919050565b6000602082019050613e616000830184613913565b92915050565b6000604082019050613e7c6000830185613913565b613e89602083018461343f565b9392505050565b6000604082019050613ea56000830185613913565b613eb2602083018461344e565b9392505050565b6000604082019050613ece6000830185613913565b613edb6020830184613913565b9392505050565b6000613eec613efd565b9050613ef88282614279565b919050565b6000604051905090565b600067ffffffffffffffff821115613f2257613f216143b1565b5b602082029050602081019050919050565b600067ffffffffffffffff821115613f4e57613f4d6143b1565b5b613f57826143e0565b9050602081019050919050565b600067ffffffffffffffff821115613f7f57613f7e6143b1565b5b613f88826143e0565b9050602081019050919050565b600081519050919050565b600081519050919050565b600082825260208201905092915050565b600082825260208201905092915050565b600081905092915050565b6000613fe3826141a6565b9150613fee836141a6565b9250827fffffffffffffffffffffffffffffffffffffffffffffffffffffffffffffffff0382111561402357614022614324565b5b828201905092915050565b6000614039826141d4565b9150614044836141d4565b92508260ff0382111561405a57614059614324565b5b828201905092915050565b6000614070826141a6565b915061407b836141a6565b92508261408b5761408a614353565b5b828204905092915050565b60006140a1826141a6565b91506140ac836141a6565b9250817fffffffffffffffffffffffffffffffffffffffffffffffffffffffffffffffff04831182151516156140e5576140e4614324565b5b828202905092915050565b60006140fb826141a6565b9150614106836141a6565b92508282101561411957614118614324565b5b828203905092915050565b600061412f82614186565b9050919050565b60008115159050919050565b6000819050919050565b60007fffffffff0000000000000000000000000000000000000000000000000000000082169050919050565b600061ffff82169050919050565b600073ffffffffffffffffffffffffffffffffffffffff82169050919050565b6000819050919050565b600063ffffffff82169050919050565b600067ffffffffffffffff82169050919050565b600060ff82169050919050565b60006141ec82614178565b9050919050565b60006141fe82614178565b9050919050565b82818337600083830152505050565b60005b83811015614232578082015181840152602081019050614217565b83811115614241576000848401525b50505050565b6000600282049050600182168061425f57607f821691505b6020821081141561427357614272614382565b5b50919050565b614282826143e0565b810181811067ffffffffffffffff821117156142a1576142a06143b1565b5b80604052505050565b60006142b5826141a6565b91507fffffffffffffffffffffffffffffffffffffffffffffffffffffffffffffffff8214156142e8576142e7614324565b5b600182019050919050565b60006142fe826141a6565b9150614309836141a6565b92508261431957614318614353565b5b828206905092915050565b7f4e487b7100000000000000000000000000000000000000000000000000000000600052601160045260246000fd5b7f4e487b7100000000000000000000000000000000000000000000000000000000600052601260045260246000fd5b7f4e487b7100000000000000000000000000000000000000000000000000000000600052602260045260246000fd5b7f4e487b7100000000000000000000000000000000000000000000000000000000600052604160045260246000fd5b6000601f19601f8301169050919050565b7f22696d616765223a000000000000000000000000000000000000000000000000600082015250565b7f4552433732313a207472616e7366657220746f206e6f6e20455243373231526560008201527f63656976657220696d706c656d656e7465720000000000000000000000000000602082015250565b7f4552433732313a207472616e736665722066726f6d20696e636f72726563742060008201527f6f776e6572000000000000000000000000000000000000000000000000000000602082015250565b7f4552433732313a20746f6b656e20616c7265616479206d696e74656400000000600082015250565b7f546f6b656e496420686173206e6f74206265656e206d696e7465642079657400600082015250565b7f7b226e616d65223a2022535647204e4654222c20000000000000000000000000600082015250565b7f4e65656420746f207761697420666f722074686520436861696e6c696e6b206e60008201527f6f646520746f20726573706f6e64210000000000000000000000000000000000602082015250565b7f4552433732313a207472616e7366657220746f20746865207a65726f2061646460008201527f7265737300000000000000000000000000000000000000000000000000000000602082015250565b7f4e6f7420656e6f7567682066756e640000000000000000000000000000000000600082015250565b7f4552433732313a20617070726f766520746f2063616c6c657200000000000000600082015250565b7f4552433732313a206f70657261746f7220717565727920666f72206e6f6e657860008201527f697374656e7420746f6b656e0000000000000000000000000000000000000000602082015250565b7f272066696c6c3d277472616e73706172656e7427207374726f6b653d27000000600082015250565b7f746f6b656e496420616c72656164792073657421000000000000000000000000600082015250565b7f2000000000000000000000000000000000000000000000000000000000000000600082015250565b7f272f3e0000000000000000000000000000000000000000000000000000000000600082015250565b7f4469646e2774206765742072616e646f6d20576f726400000000000000000000600082015250565b7f4552433732313a20617070726f76652063616c6c6572206973206e6f74206f7760008201527f6e6572206e6f7220617070726f76656420666f7220616c6c0000000000000000602082015250565b7f4552433732313a2062616c616e636520717565727920666f7220746865207a6560008201527f726f206164647265737300000000000000000000000000000000000000000000602082015250565b7f4552433732313a206f776e657220717565727920666f72206e6f6e657869737460008201527f656e7420746f6b656e0000000000000000000000000000000000000000000000602082015250565b7f45524337323155524953746f726167653a2055524920736574206f66206e6f6e60008201527f6578697374656e7420746f6b656e000000000000000000000000000000000000602082015250565b7f227d000000000000000000000000000000000000000000000000000000000000600082015250565b7f226465736372697074696f6e223a2022414e204e4654206261736564206f6e2060008201527f535647222c200000000000000000000000000000000000000000000000000000602082015250565b7f4552433732313a206d696e7420746f20746865207a65726f2061646472657373600082015250565b7f45524337323155524953746f726167653a2055524920717565727920666f722060008201527f6e6f6e6578697374656e7420746f6b656e000000000000000000000000000000602082015250565b7f4552433732313a20617070726f76656420717565727920666f72206e6f6e657860008201527f697374656e7420746f6b656e0000000000000000000000000000000000000000602082015250565b7f4552433732314d657461646174613a2055524920717565727920666f72206e6f60008201527f6e6578697374656e7420746f6b656e0000000000000000000000000000000000602082015250565b7f2261747472696275746573223a2022222c200000000000000000000000000000600082015250565b7f4552433732313a20617070726f76616c20746f2063757272656e74206f776e6560008201527f7200000000000000000000000000000000000000000000000000000000000000602082015250565b7f4e6f74206f776e65720000000000000000000000000000000000000000000000600082015250565b7f4552433732313a207472616e736665722063616c6c6572206973206e6f74206f60008201527f776e6572206e6f7220617070726f766564000000000000000000000000000000602082015250565b7f3c2f7376673e0000000000000000000000000000000000000000000000000000600082015250565b614b2b81614124565b8114614b3657600080fd5b50565b614b4281614136565b8114614b4d57600080fd5b50565b614b598161414c565b8114614b6457600080fd5b50565b614b70816141a6565b8114614b7b57600080fd5b5056fe4142434445464748494a4b4c4d4e4f505152535455565758595a6162636465666768696a6b6c6d6e6f707172737475767778797a303132333435363738392b2f3c73766720786d6c6e733d22687474703a2f2f7777772e77332e6f72672f323030302f73766722206865696768743d22353030222077696474683d22353030223ea264697066735822122051626091badb2196e955f02896588e0b82f404b4375329079e14fedf5728a94264736f6c63430008040033",
  "devdoc": {
    "kind": "dev",
    "methods": {
      "approve(address,uint256)": {
        "details": "See {IERC721-approve}."
      },
      "balanceOf(address)": {
        "details": "See {IERC721-balanceOf}."
      },
      "constructor": {
        "params": {
          "keyHash_": "bytes32 The gas lane to use, which specifies the maximum gas price to bump to.",
          "subscriptionId_": "uint256 of vrf subscription",
          "vrfCoordinator_": "address of network coordinatorof vrf"
        }
      },
      "finishMint(uint256)": {
        "details": "Minting is already done, so function adds tokenUri to tokenId"
      },
      "getApproved(uint256)": {
        "details": "See {IERC721-getApproved}."
      },
      "isApprovedForAll(address,address)": {
        "details": "See {IERC721-isApprovedForAll}."
      },
      "name()": {
        "details": "See {IERC721Metadata-name}."
      },
      "ownerOf(uint256)": {
        "details": "See {IERC721-ownerOf}."
      },
      "safeTransferFrom(address,address,uint256)": {
        "details": "See {IERC721-safeTransferFrom}."
      },
      "safeTransferFrom(address,address,uint256,bytes)": {
        "details": "See {IERC721-safeTransferFrom}."
      },
      "setApprovalForAll(address,bool)": {
        "details": "See {IERC721-setApprovalForAll}."
      },
      "supportsInterface(bytes4)": {
        "details": "See {IERC165-supportsInterface}."
      },
      "symbol()": {
        "details": "See {IERC721Metadata-symbol}."
      },
      "tokenURI(uint256)": {
        "details": "See {IERC721Metadata-tokenURI}."
      },
      "transferFrom(address,address,uint256)": {
        "details": "See {IERC721-transferFrom}."
      }
    },
    "version": 1
  },
  "userdoc": {
    "kind": "user",
    "methods": {
      "constructor": {
        "notice": "Set some variable "
      }
    },
    "notice": "In this contract we need randomness in our SVG Code, so we'll use chainlink's VRF to get the random number. Coz using keccak246 is not complete random and contract can be hacked ",
    "version": 1
  },
  "storageLayout": {
    "storage": [
      {
        "astId": 172,
        "contract": "contracts/RandomSVG.sol:RandomSVG",
        "label": "_name",
        "offset": 0,
        "slot": "0",
        "type": "t_string_storage"
      },
      {
        "astId": 174,
        "contract": "contracts/RandomSVG.sol:RandomSVG",
        "label": "_symbol",
        "offset": 0,
        "slot": "1",
        "type": "t_string_storage"
      },
      {
        "astId": 178,
        "contract": "contracts/RandomSVG.sol:RandomSVG",
        "label": "_owners",
        "offset": 0,
        "slot": "2",
        "type": "t_mapping(t_uint256,t_address)"
      },
      {
        "astId": 182,
        "contract": "contracts/RandomSVG.sol:RandomSVG",
        "label": "_balances",
        "offset": 0,
        "slot": "3",
        "type": "t_mapping(t_address,t_uint256)"
      },
      {
        "astId": 186,
        "contract": "contracts/RandomSVG.sol:RandomSVG",
        "label": "_tokenApprovals",
        "offset": 0,
        "slot": "4",
        "type": "t_mapping(t_uint256,t_address)"
      },
      {
        "astId": 192,
        "contract": "contracts/RandomSVG.sol:RandomSVG",
        "label": "_operatorApprovals",
        "offset": 0,
        "slot": "5",
        "type": "t_mapping(t_address,t_mapping(t_address,t_bool))"
      },
      {
        "astId": 1159,
        "contract": "contracts/RandomSVG.sol:RandomSVG",
        "label": "_tokenURIs",
        "offset": 0,
        "slot": "6",
        "type": "t_mapping(t_uint256,t_string_storage)"
      },
      {
        "astId": 1986,
        "contract": "contracts/RandomSVG.sol:RandomSVG",
        "label": "COORDINATOR",
        "offset": 0,
        "slot": "7",
        "type": "t_contract(VRFCoordinatorV2Interface)146"
      },
      {
        "astId": 1988,
        "contract": "contracts/RandomSVG.sol:RandomSVG",
        "label": "tokenCounter",
        "offset": 0,
        "slot": "8",
        "type": "t_uint256"
      },
      {
        "astId": 1990,
        "contract": "contracts/RandomSVG.sol:RandomSVG",
        "label": "owner",
        "offset": 0,
        "slot": "9",
        "type": "t_address_payable"
      },
      {
        "astId": 1992,
        "contract": "contracts/RandomSVG.sol:RandomSVG",
        "label": "s_subscriptionId",
        "offset": 20,
        "slot": "9",
        "type": "t_uint64"
      },
      {
        "astId": 1994,
        "contract": "contracts/RandomSVG.sol:RandomSVG",
        "label": "keyHash",
        "offset": 0,
        "slot": "10",
        "type": "t_bytes32"
      },
      {
        "astId": 1997,
        "contract": "contracts/RandomSVG.sol:RandomSVG",
        "label": "callbackGasLimit",
        "offset": 0,
        "slot": "11",
        "type": "t_uint32"
      },
      {
        "astId": 2000,
        "contract": "contracts/RandomSVG.sol:RandomSVG",
        "label": "requestConfirmations",
        "offset": 4,
        "slot": "11",
        "type": "t_uint16"
      },
      {
        "astId": 2003,
        "contract": "contracts/RandomSVG.sol:RandomSVG",
        "label": "numWords",
        "offset": 6,
        "slot": "11",
        "type": "t_uint32"
      },
      {
        "astId": 2005,
        "contract": "contracts/RandomSVG.sol:RandomSVG",
        "label": "requestId",
        "offset": 0,
        "slot": "12",
        "type": "t_uint256"
      },
      {
        "astId": 2017,
        "contract": "contracts/RandomSVG.sol:RandomSVG",
        "label": "pathCommands",
        "offset": 0,
        "slot": "13",
        "type": "t_array(t_string_storage)dyn_storage"
      },
      {
        "astId": 2026,
        "contract": "contracts/RandomSVG.sol:RandomSVG",
        "label": "colors",
        "offset": 0,
        "slot": "14",
        "type": "t_array(t_string_storage)dyn_storage"
      },
      {
        "astId": 2030,
        "contract": "contracts/RandomSVG.sol:RandomSVG",
        "label": "requestIdToSender",
        "offset": 0,
        "slot": "15",
        "type": "t_mapping(t_uint256,t_address)"
      },
      {
        "astId": 2034,
        "contract": "contracts/RandomSVG.sol:RandomSVG",
        "label": "requestIdToTokenID",
        "offset": 0,
        "slot": "16",
        "type": "t_mapping(t_uint256,t_uint256)"
      },
      {
        "astId": 2038,
        "contract": "contracts/RandomSVG.sol:RandomSVG",
        "label": "tokenIdToRandomNumber",
        "offset": 0,
        "slot": "17",
        "type": "t_mapping(t_uint256,t_uint256)"
      }
    ],
    "types": {
      "t_address": {
        "encoding": "inplace",
        "label": "address",
        "numberOfBytes": "20"
      },
      "t_address_payable": {
        "encoding": "inplace",
        "label": "address payable",
        "numberOfBytes": "20"
      },
      "t_array(t_string_storage)dyn_storage": {
        "base": "t_string_storage",
        "encoding": "dynamic_array",
        "label": "string[]",
        "numberOfBytes": "32"
      },
      "t_bool": {
        "encoding": "inplace",
        "label": "bool",
        "numberOfBytes": "1"
      },
      "t_bytes32": {
        "encoding": "inplace",
        "label": "bytes32",
        "numberOfBytes": "32"
      },
      "t_contract(VRFCoordinatorV2Interface)146": {
        "encoding": "inplace",
        "label": "contract VRFCoordinatorV2Interface",
        "numberOfBytes": "20"
      },
      "t_mapping(t_address,t_bool)": {
        "encoding": "mapping",
        "key": "t_address",
        "label": "mapping(address => bool)",
        "numberOfBytes": "32",
        "value": "t_bool"
      },
      "t_mapping(t_address,t_mapping(t_address,t_bool))": {
        "encoding": "mapping",
        "key": "t_address",
        "label": "mapping(address => mapping(address => bool))",
        "numberOfBytes": "32",
        "value": "t_mapping(t_address,t_bool)"
      },
      "t_mapping(t_address,t_uint256)": {
        "encoding": "mapping",
        "key": "t_address",
        "label": "mapping(address => uint256)",
        "numberOfBytes": "32",
        "value": "t_uint256"
      },
      "t_mapping(t_uint256,t_address)": {
        "encoding": "mapping",
        "key": "t_uint256",
        "label": "mapping(uint256 => address)",
        "numberOfBytes": "32",
        "value": "t_address"
      },
      "t_mapping(t_uint256,t_string_storage)": {
        "encoding": "mapping",
        "key": "t_uint256",
        "label": "mapping(uint256 => string)",
        "numberOfBytes": "32",
        "value": "t_string_storage"
      },
      "t_mapping(t_uint256,t_uint256)": {
        "encoding": "mapping",
        "key": "t_uint256",
        "label": "mapping(uint256 => uint256)",
        "numberOfBytes": "32",
        "value": "t_uint256"
      },
      "t_string_storage": {
        "encoding": "bytes",
        "label": "string",
        "numberOfBytes": "32"
      },
      "t_uint16": {
        "encoding": "inplace",
        "label": "uint16",
        "numberOfBytes": "2"
      },
      "t_uint256": {
        "encoding": "inplace",
        "label": "uint256",
        "numberOfBytes": "32"
      },
      "t_uint32": {
        "encoding": "inplace",
        "label": "uint32",
        "numberOfBytes": "4"
      },
      "t_uint64": {
        "encoding": "inplace",
        "label": "uint64",
        "numberOfBytes": "8"
      }
    }
  }
}