{
  "address": "0x58D66383a8690ca3b01069CA13e83A3C03D71000",
  "abi": [
    {
      "inputs": [],
      "stateMutability": "nonpayable",
      "type": "constructor"
    },
    {
      "anonymous": false,
      "inputs": [
        {
          "indexed": true,
          "internalType": "address",
          "name": "owner",
          "type": "address"
        },
        {
          "indexed": true,
          "internalType": "address",
          "name": "approved",
          "type": "address"
        },
        {
          "indexed": true,
          "internalType": "uint256",
          "name": "tokenId",
          "type": "uint256"
        }
      ],
      "name": "Approval",
      "type": "event"
    },
    {
      "anonymous": false,
      "inputs": [
        {
          "indexed": true,
          "internalType": "address",
          "name": "owner",
          "type": "address"
        },
        {
          "indexed": true,
          "internalType": "address",
          "name": "operator",
          "type": "address"
        },
        {
          "indexed": false,
          "internalType": "bool",
          "name": "approved",
          "type": "bool"
        }
      ],
      "name": "ApprovalForAll",
      "type": "event"
    },
    {
      "anonymous": false,
      "inputs": [
        {
          "indexed": true,
          "internalType": "uint256",
          "name": "tokenId",
          "type": "uint256"
        },
        {
          "indexed": false,
          "internalType": "string",
          "name": "tokenURI",
          "type": "string"
        }
      ],
      "name": "CraetedSVGNFT",
      "type": "event"
    },
    {
      "anonymous": false,
      "inputs": [
        {
          "indexed": true,
          "internalType": "address",
          "name": "from",
          "type": "address"
        },
        {
          "indexed": true,
          "internalType": "address",
          "name": "to",
          "type": "address"
        },
        {
          "indexed": true,
          "internalType": "uint256",
          "name": "tokenId",
          "type": "uint256"
        }
      ],
      "name": "Transfer",
      "type": "event"
    },
    {
      "inputs": [
        {
          "internalType": "address",
          "name": "to",
          "type": "address"
        },
        {
          "internalType": "uint256",
          "name": "tokenId",
          "type": "uint256"
        }
      ],
      "name": "approve",
      "outputs": [],
      "stateMutability": "nonpayable",
      "type": "function"
    },
    {
      "inputs": [
        {
          "internalType": "address",
          "name": "owner",
          "type": "address"
        }
      ],
      "name": "balanceOf",
      "outputs": [
        {
          "internalType": "uint256",
          "name": "",
          "type": "uint256"
        }
      ],
      "stateMutability": "view",
      "type": "function"
    },
    {
      "inputs": [
        {
          "internalType": "string",
          "name": "_svg",
          "type": "string"
        }
      ],
      "name": "create",
      "outputs": [],
      "stateMutability": "nonpayable",
      "type": "function"
    },
    {
      "inputs": [
        {
          "internalType": "uint256",
          "name": "tokenId",
          "type": "uint256"
        }
      ],
      "name": "getApproved",
      "outputs": [
        {
          "internalType": "address",
          "name": "",
          "type": "address"
        }
      ],
      "stateMutability": "view",
      "type": "function"
    },
    {
      "inputs": [
        {
          "internalType": "string",
          "name": "_imageURI",
          "type": "string"
        }
      ],
      "name": "getTokenURI",
      "outputs": [
        {
          "internalType": "string",
          "name": "",
          "type": "string"
        }
      ],
      "stateMutability": "pure",
      "type": "function"
    },
    {
      "inputs": [
        {
          "internalType": "address",
          "name": "owner",
          "type": "address"
        },
        {
          "internalType": "address",
          "name": "operator",
          "type": "address"
        }
      ],
      "name": "isApprovedForAll",
      "outputs": [
        {
          "internalType": "bool",
          "name": "",
          "type": "bool"
        }
      ],
      "stateMutability": "view",
      "type": "function"
    },
    {
      "inputs": [],
      "name": "name",
      "outputs": [
        {
          "internalType": "string",
          "name": "",
          "type": "string"
        }
      ],
      "stateMutability": "view",
      "type": "function"
    },
    {
      "inputs": [
        {
          "internalType": "uint256",
          "name": "tokenId",
          "type": "uint256"
        }
      ],
      "name": "ownerOf",
      "outputs": [
        {
          "internalType": "address",
          "name": "",
          "type": "address"
        }
      ],
      "stateMutability": "view",
      "type": "function"
    },
    {
      "inputs": [
        {
          "internalType": "address",
          "name": "from",
          "type": "address"
        },
        {
          "internalType": "address",
          "name": "to",
          "type": "address"
        },
        {
          "internalType": "uint256",
          "name": "tokenId",
          "type": "uint256"
        }
      ],
      "name": "safeTransferFrom",
      "outputs": [],
      "stateMutability": "nonpayable",
      "type": "function"
    },
    {
      "inputs": [
        {
          "internalType": "address",
          "name": "from",
          "type": "address"
        },
        {
          "internalType": "address",
          "name": "to",
          "type": "address"
        },
        {
          "internalType": "uint256",
          "name": "tokenId",
          "type": "uint256"
        },
        {
          "internalType": "bytes",
          "name": "_data",
          "type": "bytes"
        }
      ],
      "name": "safeTransferFrom",
      "outputs": [],
      "stateMutability": "nonpayable",
      "type": "function"
    },
    {
      "inputs": [
        {
          "internalType": "address",
          "name": "operator",
          "type": "address"
        },
        {
          "internalType": "bool",
          "name": "approved",
          "type": "bool"
        }
      ],
      "name": "setApprovalForAll",
      "outputs": [],
      "stateMutability": "nonpayable",
      "type": "function"
    },
    {
      "inputs": [
        {
          "internalType": "bytes4",
          "name": "interfaceId",
          "type": "bytes4"
        }
      ],
      "name": "supportsInterface",
      "outputs": [
        {
          "internalType": "bool",
          "name": "",
          "type": "bool"
        }
      ],
      "stateMutability": "view",
      "type": "function"
    },
    {
      "inputs": [
        {
          "internalType": "string",
          "name": "_svg",
          "type": "string"
        }
      ],
      "name": "svgToImageURI",
      "outputs": [
        {
          "internalType": "string",
          "name": "",
          "type": "string"
        }
      ],
      "stateMutability": "pure",
      "type": "function"
    },
    {
      "inputs": [],
      "name": "symbol",
      "outputs": [
        {
          "internalType": "string",
          "name": "",
          "type": "string"
        }
      ],
      "stateMutability": "view",
      "type": "function"
    },
    {
      "inputs": [],
      "name": "tokenCounter",
      "outputs": [
        {
          "internalType": "uint256",
          "name": "",
          "type": "uint256"
        }
      ],
      "stateMutability": "view",
      "type": "function"
    },
    {
      "inputs": [
        {
          "internalType": "uint256",
          "name": "tokenId",
          "type": "uint256"
        }
      ],
      "name": "tokenURI",
      "outputs": [
        {
          "internalType": "string",
          "name": "",
          "type": "string"
        }
      ],
      "stateMutability": "view",
      "type": "function"
    },
    {
      "inputs": [
        {
          "internalType": "address",
          "name": "from",
          "type": "address"
        },
        {
          "internalType": "address",
          "name": "to",
          "type": "address"
        },
        {
          "internalType": "uint256",
          "name": "tokenId",
          "type": "uint256"
        }
      ],
      "name": "transferFrom",
      "outputs": [],
      "stateMutability": "nonpayable",
      "type": "function"
    }
  ],
  "transactionHash": "0x41d3bbba5b9894b921bbdd63267bb20342b1e816b05455b5710de92006cb4940",
  "args": [],
  "numDeployments": 1,
  "solcInputHash": "c4a7db4635bf796cea9e4429a414e51d",
  "bytecode": "0x60806040523480156200001157600080fd5b506040518060400160405280600781526020017f535647204e4654000000000000000000000000000000000000000000000000008152506040518060400160405280600681526020017f5356474e46540000000000000000000000000000000000000000000000000000815250816000908051906020019062000096929190620000c0565b508060019080519060200190620000af929190620000c0565b5050506000600781905550620001d5565b828054620000ce9062000170565b90600052602060002090601f016020900481019282620000f257600085556200013e565b82601f106200010d57805160ff19168380011785556200013e565b828001600101855582156200013e579182015b828111156200013d57825182559160200191906001019062000120565b5b5090506200014d919062000151565b5090565b5b808211156200016c57600081600090555060010162000152565b5090565b600060028204905060018216806200018957607f821691505b60208210811415620001a0576200019f620001a6565b5b50919050565b7f4e487b7100000000000000000000000000000000000000000000000000000000600052602260045260246000fd5b61322480620001e56000396000f3fe608060405234801561001057600080fd5b506004361061010b5760003560e01c806370a08231116100a2578063b88d4fde11610071578063b88d4fde146102c8578063c87b56dd146102e4578063d082e38114610314578063d3e1f6e314610332578063e985e9c5146103625761010b565b806370a082311461024257806395d89b4114610272578063a22cb46514610290578063b6a46b3b146102ac5761010b565b806323b872dd116100de57806323b872dd146101aa57806330d871c6146101c657806342842e0e146101f65780636352211e146102125761010b565b806301ffc9a71461011057806306fdde0314610140578063081812fc1461015e578063095ea7b31461018e575b600080fd5b61012a60048036038101906101259190611fef565b610392565b604051610137919061254a565b60405180910390f35b610148610474565b6040516101559190612565565b60405180910390f35b61017860048036038101906101739190612082565b610506565b60405161018591906124e3565b60405180910390f35b6101a860048036038101906101a39190611fb3565b61058b565b005b6101c460048036038101906101bf9190611ead565b6106a3565b005b6101e060048036038101906101db9190612041565b610703565b6040516101ed9190612565565b60405180910390f35b610210600480360381019061020b9190611ead565b61079c565b005b61022c60048036038101906102279190612082565b6107bc565b60405161023991906124e3565b60405180910390f35b61025c60048036038101906102579190611e48565b61086e565b6040516102699190612787565b60405180910390f35b61027a610926565b6040516102879190612565565b60405180910390f35b6102aa60048036038101906102a59190611f77565b6109b8565b005b6102c660048036038101906102c19190612041565b6109ce565b005b6102e260048036038101906102dd9190611efc565b610a57565b005b6102fe60048036038101906102f99190612082565b610ab9565b60405161030b9190612565565b60405180910390f35b61031c610c0b565b6040516103299190612787565b60405180910390f35b61034c60048036038101906103479190612041565b610c11565b6040516103599190612565565b60405180910390f35b61037c60048036038101906103779190611e71565b610c9e565b604051610389919061254a565b60405180910390f35b60007f80ac58cd000000000000000000000000000000000000000000000000000000007bffffffffffffffffffffffffffffffffffffffffffffffffffffffff1916827bffffffffffffffffffffffffffffffffffffffffffffffffffffffff1916148061045d57507f5b5e139f000000000000000000000000000000000000000000000000000000007bffffffffffffffffffffffffffffffffffffffffffffffffffffffff1916827bffffffffffffffffffffffffffffffffffffffffffffffffffffffff1916145b8061046d575061046c82610d32565b5b9050919050565b60606000805461048390612a37565b80601f01602080910402602001604051908101604052809291908181526020018280546104af90612a37565b80156104fc5780601f106104d1576101008083540402835291602001916104fc565b820191906000526020600020905b8154815290600101906020018083116104df57829003601f168201915b5050505050905090565b600061051182610d9c565b610550576040517f08c379a000000000000000000000000000000000000000000000000000000000815260040161054790612707565b60405180910390fd5b6004600083815260200190815260200160002060009054906101000a900473ffffffffffffffffffffffffffffffffffffffff169050919050565b6000610596826107bc565b90508073ffffffffffffffffffffffffffffffffffffffff168373ffffffffffffffffffffffffffffffffffffffff161415610607576040517f08c379a00000000000000000000000000000000000000000000000000000000081526004016105fe90612747565b60405180910390fd5b8073ffffffffffffffffffffffffffffffffffffffff16610626610e08565b73ffffffffffffffffffffffffffffffffffffffff16148061065557506106548161064f610e08565b610c9e565b5b610694576040517f08c379a000000000000000000000000000000000000000000000000000000000815260040161068b90612647565b60405180910390fd5b61069e8383610e10565b505050565b6106b46106ae610e08565b82610ec9565b6106f3576040517f08c379a00000000000000000000000000000000000000000000000000000000081526004016106ea90612767565b60405180910390fd5b6106fe838383610fa7565b505050565b606060006040518060400160405280601a81526020017f646174613a696d6167652f7376672b786d6c3b6261736536342c0000000000008152509050600061076984604051602001610755919061245a565b60405160208183030381529060405261120e565b905060008282604051602001610780929190612471565b6040516020818303038152906040529050809350505050919050565b6107b783838360405180602001604052806000815250610a57565b505050565b6000806002600084815260200190815260200160002060009054906101000a900473ffffffffffffffffffffffffffffffffffffffff169050600073ffffffffffffffffffffffffffffffffffffffff168173ffffffffffffffffffffffffffffffffffffffff161415610865576040517f08c379a000000000000000000000000000000000000000000000000000000000815260040161085c90612687565b60405180910390fd5b80915050919050565b60008073ffffffffffffffffffffffffffffffffffffffff168273ffffffffffffffffffffffffffffffffffffffff1614156108df576040517f08c379a00000000000000000000000000000000000000000000000000000000081526004016108d690612667565b60405180910390fd5b600360008373ffffffffffffffffffffffffffffffffffffffff1673ffffffffffffffffffffffffffffffffffffffff168152602001908152602001600020549050919050565b60606001805461093590612a37565b80601f016020809104026020016040519081016040528092919081815260200182805461096190612a37565b80156109ae5780601f10610983576101008083540402835291602001916109ae565b820191906000526020600020905b81548152906001019060200180831161099157829003601f168201915b5050505050905090565b6109ca6109c3610e08565b83836113ad565b5050565b6109da3360075461151a565b60006109e582610703565b905060006109f282610c11565b9050610a0060075482611538565b6007547fd7566c108bcfd2dff1ceb41f855199dbb3fd84e0a4ffa0223c0f8d37c3b1211682604051610a329190612565565b60405180910390a260076000815480929190610a4d90612a9a565b9190505550505050565b610a68610a62610e08565b83610ec9565b610aa7576040517f08c379a0000000000000000000000000000000000000000000000000000000008152600401610a9e90612767565b60405180910390fd5b610ab3848484846115ac565b50505050565b6060610ac482610d9c565b610b03576040517f08c379a0000000000000000000000000000000000000000000000000000000008152600401610afa906126e7565b60405180910390fd5b6000600660008481526020019081526020016000208054610b2390612a37565b80601f0160208091040260200160405190810160405280929190818152602001828054610b4f90612a37565b8015610b9c5780601f10610b7157610100808354040283529160200191610b9c565b820191906000526020600020905b815481529060010190602001808311610b7f57829003601f168201915b505050505090506000610bad611608565b9050600081511415610bc3578192505050610c06565b600082511115610bf8578082604051602001610be0929190612471565b60405160208183030381529060405292505050610c06565b610c018461161f565b925050505b919050565b60075481565b606060006040518060400160405280601d81526020017f646174613a6170706c69636174696f6e2f6a736f6e3b6261736536342c000000815250905080610c7684604051602001610c629190612495565b60405160208183030381529060405261120e565b604051602001610c87929190612471565b604051602081830303815290604052915050919050565b6000600560008473ffffffffffffffffffffffffffffffffffffffff1673ffffffffffffffffffffffffffffffffffffffff16815260200190815260200160002060008373ffffffffffffffffffffffffffffffffffffffff1673ffffffffffffffffffffffffffffffffffffffff16815260200190815260200160002060009054906101000a900460ff16905092915050565b60007f01ffc9a7000000000000000000000000000000000000000000000000000000007bffffffffffffffffffffffffffffffffffffffffffffffffffffffff1916827bffffffffffffffffffffffffffffffffffffffffffffffffffffffff1916149050919050565b60008073ffffffffffffffffffffffffffffffffffffffff166002600084815260200190815260200160002060009054906101000a900473ffffffffffffffffffffffffffffffffffffffff1673ffffffffffffffffffffffffffffffffffffffff1614159050919050565b600033905090565b816004600083815260200190815260200160002060006101000a81548173ffffffffffffffffffffffffffffffffffffffff021916908373ffffffffffffffffffffffffffffffffffffffff160217905550808273ffffffffffffffffffffffffffffffffffffffff16610e83836107bc565b73ffffffffffffffffffffffffffffffffffffffff167f8c5be1e5ebec7d5bd14f71427d1e84f3dd0314c0f7b2291e5b200ac8c7c3b92560405160405180910390a45050565b6000610ed482610d9c565b610f13576040517f08c379a0000000000000000000000000000000000000000000000000000000008152600401610f0a90612627565b60405180910390fd5b6000610f1e836107bc565b90508073ffffffffffffffffffffffffffffffffffffffff168473ffffffffffffffffffffffffffffffffffffffff161480610f605750610f5f8185610c9e565b5b80610f9e57508373ffffffffffffffffffffffffffffffffffffffff16610f8684610506565b73ffffffffffffffffffffffffffffffffffffffff16145b91505092915050565b8273ffffffffffffffffffffffffffffffffffffffff16610fc7826107bc565b73ffffffffffffffffffffffffffffffffffffffff161461101d576040517f08c379a0000000000000000000000000000000000000000000000000000000008152600401611014906125a7565b60405180910390fd5b600073ffffffffffffffffffffffffffffffffffffffff168273ffffffffffffffffffffffffffffffffffffffff16141561108d576040517f08c379a0000000000000000000000000000000000000000000000000000000008152600401611084906125e7565b60405180910390fd5b6110988383836116c6565b6110a3600082610e10565b6001600360008573ffffffffffffffffffffffffffffffffffffffff1673ffffffffffffffffffffffffffffffffffffffff16815260200190815260200160002060008282546110f3919061294d565b925050819055506001600360008473ffffffffffffffffffffffffffffffffffffffff1673ffffffffffffffffffffffffffffffffffffffff168152602001908152602001600020600082825461114a919061286c565b92505081905550816002600083815260200190815260200160002060006101000a81548173ffffffffffffffffffffffffffffffffffffffff021916908373ffffffffffffffffffffffffffffffffffffffff160217905550808273ffffffffffffffffffffffffffffffffffffffff168473ffffffffffffffffffffffffffffffffffffffff167fddf252ad1be2c89b69c2b068fc378daa952ba7f163c4a11628f55a4df523b3ef60405160405180910390a46112098383836116cb565b505050565b6060600082511415611231576040518060200160405280600081525090506113a8565b60006040518060600160405280604081526020016131af6040913990506000600360028551611260919061286c565b61126a91906128c2565b600461127691906128f3565b90506000602082611287919061286c565b67ffffffffffffffff8111156112c6577f4e487b7100000000000000000000000000000000000000000000000000000000600052604160045260246000fd5b6040519080825280601f01601f1916602001820160405280156112f85781602001600182028036833780820191505090505b509050818152600183018586518101602084015b81831015611367576003830192508251603f8160121c168501518253600182019150603f81600c1c168501518253600182019150603f8160061c168501518253600182019150603f811685015182536001820191505061130c565b60038951066001811461138157600281146113915761139c565b613d3d60f01b600283035261139c565b603d60f81b60018303525b50505050508093505050505b919050565b8173ffffffffffffffffffffffffffffffffffffffff168373ffffffffffffffffffffffffffffffffffffffff16141561141c576040517f08c379a000000000000000000000000000000000000000000000000000000000815260040161141390612607565b60405180910390fd5b80600560008573ffffffffffffffffffffffffffffffffffffffff1673ffffffffffffffffffffffffffffffffffffffff16815260200190815260200160002060008473ffffffffffffffffffffffffffffffffffffffff1673ffffffffffffffffffffffffffffffffffffffff16815260200190815260200160002060006101000a81548160ff0219169083151502179055508173ffffffffffffffffffffffffffffffffffffffff168373ffffffffffffffffffffffffffffffffffffffff167f17307eab39ab6107e8899845ad3d59bd9653f200f220920489ca2b5937696c318360405161150d919061254a565b60405180910390a3505050565b6115348282604051806020016040528060008152506116d0565b5050565b61154182610d9c565b611580576040517f08c379a0000000000000000000000000000000000000000000000000000000008152600401611577906126a7565b60405180910390fd5b806006600084815260200190815260200160002090805190602001906115a7929190611c6c565b505050565b6115b7848484610fa7565b6115c38484848461172b565b611602576040517f08c379a00000000000000000000000000000000000000000000000000000000081526004016115f990612587565b60405180910390fd5b50505050565b606060405180602001604052806000815250905090565b606061162a82610d9c565b611669576040517f08c379a000000000000000000000000000000000000000000000000000000000815260040161166090612727565b60405180910390fd5b6000611673611608565b9050600081511161169357604051806020016040528060008152506116be565b8061169d846118c2565b6040516020016116ae929190612471565b6040516020818303038152906040525b915050919050565b505050565b505050565b6116da8383611a6f565b6116e7600084848461172b565b611726576040517f08c379a000000000000000000000000000000000000000000000000000000000815260040161171d90612587565b60405180910390fd5b505050565b600061174c8473ffffffffffffffffffffffffffffffffffffffff16611c49565b156118b5578373ffffffffffffffffffffffffffffffffffffffff1663150b7a02611775610e08565b8786866040518563ffffffff1660e01b815260040161179794939291906124fe565b602060405180830381600087803b1580156117b157600080fd5b505af19250505080156117e257506040513d601f19601f820116820180604052508101906117df9190612018565b60015b611865573d8060008114611812576040519150601f19603f3d011682016040523d82523d6000602084013e611817565b606091505b5060008151141561185d576040517f08c379a000000000000000000000000000000000000000000000000000000000815260040161185490612587565b60405180910390fd5b805181602001fd5b63150b7a0260e01b7bffffffffffffffffffffffffffffffffffffffffffffffffffffffff1916817bffffffffffffffffffffffffffffffffffffffffffffffffffffffff1916149150506118ba565b600190505b949350505050565b6060600082141561190a576040518060400160405280600181526020017f30000000000000000000000000000000000000000000000000000000000000008152509050611a6a565b600082905060005b6000821461193c57808061192590612a9a565b915050600a8261193591906128c2565b9150611912565b60008167ffffffffffffffff81111561197e577f4e487b7100000000000000000000000000000000000000000000000000000000600052604160045260246000fd5b6040519080825280601f01601f1916602001820160405280156119b05781602001600182028036833780820191505090505b5090505b60008514611a63576001826119c9919061294d565b9150600a856119d89190612ae3565b60306119e4919061286c565b60f81b818381518110611a20577f4e487b7100000000000000000000000000000000000000000000000000000000600052603260045260246000fd5b60200101907effffffffffffffffffffffffffffffffffffffffffffffffffffffffffffff1916908160001a905350600a85611a5c91906128c2565b94506119b4565b8093505050505b919050565b600073ffffffffffffffffffffffffffffffffffffffff168273ffffffffffffffffffffffffffffffffffffffff161415611adf576040517f08c379a0000000000000000000000000000000000000000000000000000000008152600401611ad6906126c7565b60405180910390fd5b611ae881610d9c565b15611b28576040517f08c379a0000000000000000000000000000000000000000000000000000000008152600401611b1f906125c7565b60405180910390fd5b611b34600083836116c6565b6001600360008473ffffffffffffffffffffffffffffffffffffffff1673ffffffffffffffffffffffffffffffffffffffff1681526020019081526020016000206000828254611b84919061286c565b92505081905550816002600083815260200190815260200160002060006101000a81548173ffffffffffffffffffffffffffffffffffffffff021916908373ffffffffffffffffffffffffffffffffffffffff160217905550808273ffffffffffffffffffffffffffffffffffffffff16600073ffffffffffffffffffffffffffffffffffffffff167fddf252ad1be2c89b69c2b068fc378daa952ba7f163c4a11628f55a4df523b3ef60405160405180910390a4611c45600083836116cb565b5050565b6000808273ffffffffffffffffffffffffffffffffffffffff163b119050919050565b828054611c7890612a37565b90600052602060002090601f016020900481019282611c9a5760008555611ce1565b82601f10611cb357805160ff1916838001178555611ce1565b82800160010185558215611ce1579182015b82811115611ce0578251825591602001919060010190611cc5565b5b509050611cee9190611cf2565b5090565b5b80821115611d0b576000816000905550600101611cf3565b5090565b6000611d22611d1d846127c7565b6127a2565b905082815260208101848484011115611d3a57600080fd5b611d458482856129f5565b509392505050565b6000611d60611d5b846127f8565b6127a2565b905082815260208101848484011115611d7857600080fd5b611d838482856129f5565b509392505050565b600081359050611d9a81613152565b92915050565b600081359050611daf81613169565b92915050565b600081359050611dc481613180565b92915050565b600081519050611dd981613180565b92915050565b600082601f830112611df057600080fd5b8135611e00848260208601611d0f565b91505092915050565b600082601f830112611e1a57600080fd5b8135611e2a848260208601611d4d565b91505092915050565b600081359050611e4281613197565b92915050565b600060208284031215611e5a57600080fd5b6000611e6884828501611d8b565b91505092915050565b60008060408385031215611e8457600080fd5b6000611e9285828601611d8b565b9250506020611ea385828601611d8b565b9150509250929050565b600080600060608486031215611ec257600080fd5b6000611ed086828701611d8b565b9350506020611ee186828701611d8b565b9250506040611ef286828701611e33565b9150509250925092565b60008060008060808587031215611f1257600080fd5b6000611f2087828801611d8b565b9450506020611f3187828801611d8b565b9350506040611f4287828801611e33565b925050606085013567ffffffffffffffff811115611f5f57600080fd5b611f6b87828801611ddf565b91505092959194509250565b60008060408385031215611f8a57600080fd5b6000611f9885828601611d8b565b9250506020611fa985828601611da0565b9150509250929050565b60008060408385031215611fc657600080fd5b6000611fd485828601611d8b565b9250506020611fe585828601611e33565b9150509250929050565b60006020828403121561200157600080fd5b600061200f84828501611db5565b91505092915050565b60006020828403121561202a57600080fd5b600061203884828501611dca565b91505092915050565b60006020828403121561205357600080fd5b600082013567ffffffffffffffff81111561206d57600080fd5b61207984828501611e09565b91505092915050565b60006020828403121561209457600080fd5b60006120a284828501611e33565b91505092915050565b6120b481612981565b82525050565b6120c381612993565b82525050565b60006120d482612829565b6120de818561283f565b93506120ee818560208601612a04565b6120f781612bd0565b840191505092915050565b600061210d82612834565b6121178185612850565b9350612127818560208601612a04565b61213081612bd0565b840191505092915050565b600061214682612834565b6121508185612861565b9350612160818560208601612a04565b80840191505092915050565b6000612179600883612861565b915061218482612be1565b600882019050919050565b600061219c603283612850565b91506121a782612c0a565b604082019050919050565b60006121bf602583612850565b91506121ca82612c59565b604082019050919050565b60006121e2601c83612850565b91506121ed82612ca8565b602082019050919050565b6000612205601483612861565b915061221082612cd1565b601482019050919050565b6000612228602483612850565b915061223382612cfa565b604082019050919050565b600061224b601983612850565b915061225682612d49565b602082019050919050565b600061226e602c83612850565b915061227982612d72565b604082019050919050565b6000612291603883612850565b915061229c82612dc1565b604082019050919050565b60006122b4602a83612850565b91506122bf82612e10565b604082019050919050565b60006122d7602983612850565b91506122e282612e5f565b604082019050919050565b60006122fa602e83612850565b915061230582612eae565b604082019050919050565b600061231d600283612861565b915061232882612efd565b600282019050919050565b6000612340602683612861565b915061234b82612f26565b602682019050919050565b6000612363602083612850565b915061236e82612f75565b602082019050919050565b6000612386603183612850565b915061239182612f9e565b604082019050919050565b60006123a9602c83612850565b91506123b482612fed565b604082019050919050565b60006123cc602f83612850565b91506123d78261303c565b604082019050919050565b60006123ef601283612861565b91506123fa8261308b565b601282019050919050565b6000612412602183612850565b915061241d826130b4565b604082019050919050565b6000612435603183612850565b915061244082613103565b604082019050919050565b612454816129eb565b82525050565b6000612466828461213b565b915081905092915050565b600061247d828561213b565b9150612489828461213b565b91508190509392505050565b60006124a0826121f8565b91506124ab82612333565b91506124b6826123e2565b91506124c18261216c565b91506124cd828461213b565b91506124d882612310565b915081905092915050565b60006020820190506124f860008301846120ab565b92915050565b600060808201905061251360008301876120ab565b61252060208301866120ab565b61252d604083018561244b565b818103606083015261253f81846120c9565b905095945050505050565b600060208201905061255f60008301846120ba565b92915050565b6000602082019050818103600083015261257f8184612102565b905092915050565b600060208201905081810360008301526125a08161218f565b9050919050565b600060208201905081810360008301526125c0816121b2565b9050919050565b600060208201905081810360008301526125e0816121d5565b9050919050565b600060208201905081810360008301526126008161221b565b9050919050565b600060208201905081810360008301526126208161223e565b9050919050565b6000602082019050818103600083015261264081612261565b9050919050565b6000602082019050818103600083015261266081612284565b9050919050565b60006020820190508181036000830152612680816122a7565b9050919050565b600060208201905081810360008301526126a0816122ca565b9050919050565b600060208201905081810360008301526126c0816122ed565b9050919050565b600060208201905081810360008301526126e081612356565b9050919050565b6000602082019050818103600083015261270081612379565b9050919050565b600060208201905081810360008301526127208161239c565b9050919050565b60006020820190508181036000830152612740816123bf565b9050919050565b6000602082019050818103600083015261276081612405565b9050919050565b6000602082019050818103600083015261278081612428565b9050919050565b600060208201905061279c600083018461244b565b92915050565b60006127ac6127bd565b90506127b88282612a69565b919050565b6000604051905090565b600067ffffffffffffffff8211156127e2576127e1612ba1565b5b6127eb82612bd0565b9050602081019050919050565b600067ffffffffffffffff82111561281357612812612ba1565b5b61281c82612bd0565b9050602081019050919050565b600081519050919050565b600081519050919050565b600082825260208201905092915050565b600082825260208201905092915050565b600081905092915050565b6000612877826129eb565b9150612882836129eb565b9250827fffffffffffffffffffffffffffffffffffffffffffffffffffffffffffffffff038211156128b7576128b6612b14565b5b828201905092915050565b60006128cd826129eb565b91506128d8836129eb565b9250826128e8576128e7612b43565b5b828204905092915050565b60006128fe826129eb565b9150612909836129eb565b9250817fffffffffffffffffffffffffffffffffffffffffffffffffffffffffffffffff048311821515161561294257612941612b14565b5b828202905092915050565b6000612958826129eb565b9150612963836129eb565b92508282101561297657612975612b14565b5b828203905092915050565b600061298c826129cb565b9050919050565b60008115159050919050565b60007fffffffff0000000000000000000000000000000000000000000000000000000082169050919050565b600073ffffffffffffffffffffffffffffffffffffffff82169050919050565b6000819050919050565b82818337600083830152505050565b60005b83811015612a22578082015181840152602081019050612a07565b83811115612a31576000848401525b50505050565b60006002820490506001821680612a4f57607f821691505b60208210811415612a6357612a62612b72565b5b50919050565b612a7282612bd0565b810181811067ffffffffffffffff82111715612a9157612a90612ba1565b5b80604052505050565b6000612aa5826129eb565b91507fffffffffffffffffffffffffffffffffffffffffffffffffffffffffffffffff821415612ad857612ad7612b14565b5b600182019050919050565b6000612aee826129eb565b9150612af9836129eb565b925082612b0957612b08612b43565b5b828206905092915050565b7f4e487b7100000000000000000000000000000000000000000000000000000000600052601160045260246000fd5b7f4e487b7100000000000000000000000000000000000000000000000000000000600052601260045260246000fd5b7f4e487b7100000000000000000000000000000000000000000000000000000000600052602260045260246000fd5b7f4e487b7100000000000000000000000000000000000000000000000000000000600052604160045260246000fd5b6000601f19601f8301169050919050565b7f22696d616765223a000000000000000000000000000000000000000000000000600082015250565b7f4552433732313a207472616e7366657220746f206e6f6e20455243373231526560008201527f63656976657220696d706c656d656e7465720000000000000000000000000000602082015250565b7f4552433732313a207472616e736665722066726f6d20696e636f72726563742060008201527f6f776e6572000000000000000000000000000000000000000000000000000000602082015250565b7f4552433732313a20746f6b656e20616c7265616479206d696e74656400000000600082015250565b7f7b226e616d65223a2022535647204e4654222c20000000000000000000000000600082015250565b7f4552433732313a207472616e7366657220746f20746865207a65726f2061646460008201527f7265737300000000000000000000000000000000000000000000000000000000602082015250565b7f4552433732313a20617070726f766520746f2063616c6c657200000000000000600082015250565b7f4552433732313a206f70657261746f7220717565727920666f72206e6f6e657860008201527f697374656e7420746f6b656e0000000000000000000000000000000000000000602082015250565b7f4552433732313a20617070726f76652063616c6c6572206973206e6f74206f7760008201527f6e6572206e6f7220617070726f76656420666f7220616c6c0000000000000000602082015250565b7f4552433732313a2062616c616e636520717565727920666f7220746865207a6560008201527f726f206164647265737300000000000000000000000000000000000000000000602082015250565b7f4552433732313a206f776e657220717565727920666f72206e6f6e657869737460008201527f656e7420746f6b656e0000000000000000000000000000000000000000000000602082015250565b7f45524337323155524953746f726167653a2055524920736574206f66206e6f6e60008201527f6578697374656e7420746f6b656e000000000000000000000000000000000000602082015250565b7f227d000000000000000000000000000000000000000000000000000000000000600082015250565b7f226465736372697074696f6e223a2022414e204e4654206261736564206f6e2060008201527f535647222c200000000000000000000000000000000000000000000000000000602082015250565b7f4552433732313a206d696e7420746f20746865207a65726f2061646472657373600082015250565b7f45524337323155524953746f726167653a2055524920717565727920666f722060008201527f6e6f6e6578697374656e7420746f6b656e000000000000000000000000000000602082015250565b7f4552433732313a20617070726f76656420717565727920666f72206e6f6e657860008201527f697374656e7420746f6b656e0000000000000000000000000000000000000000602082015250565b7f4552433732314d657461646174613a2055524920717565727920666f72206e6f60008201527f6e6578697374656e7420746f6b656e0000000000000000000000000000000000602082015250565b7f2261747472696275746573223a2022222c200000000000000000000000000000600082015250565b7f4552433732313a20617070726f76616c20746f2063757272656e74206f776e6560008201527f7200000000000000000000000000000000000000000000000000000000000000602082015250565b7f4552433732313a207472616e736665722063616c6c6572206973206e6f74206f60008201527f776e6572206e6f7220617070726f766564000000000000000000000000000000602082015250565b61315b81612981565b811461316657600080fd5b50565b61317281612993565b811461317d57600080fd5b50565b6131898161299f565b811461319457600080fd5b50565b6131a0816129eb565b81146131ab57600080fd5b5056fe4142434445464748494a4b4c4d4e4f505152535455565758595a6162636465666768696a6b6c6d6e6f707172737475767778797a303132333435363738392b2fa26469706673582212208f1e206491fd05465775e08fbb0c86a1511de9b9386c7969ed1093b0591bc05964736f6c63430008040033",
  "devdoc": {
    "kind": "dev",
    "methods": {
      "approve(address,uint256)": {
        "details": "See {IERC721-approve}."
      },
      "balanceOf(address)": {
        "details": "See {IERC721-balanceOf}."
      },
      "getApproved(uint256)": {
        "details": "See {IERC721-getApproved}."
      },
      "isApprovedForAll(address,address)": {
        "details": "See {IERC721-isApprovedForAll}."
      },
      "name()": {
        "details": "See {IERC721Metadata-name}."
      },
      "ownerOf(uint256)": {
        "details": "See {IERC721-ownerOf}."
      },
      "safeTransferFrom(address,address,uint256)": {
        "details": "See {IERC721-safeTransferFrom}."
      },
      "safeTransferFrom(address,address,uint256,bytes)": {
        "details": "See {IERC721-safeTransferFrom}."
      },
      "setApprovalForAll(address,bool)": {
        "details": "See {IERC721-setApprovalForAll}."
      },
      "supportsInterface(bytes4)": {
        "details": "See {IERC165-supportsInterface}."
      },
      "symbol()": {
        "details": "See {IERC721Metadata-symbol}."
      },
      "tokenURI(uint256)": {
        "details": "See {IERC721Metadata-tokenURI}."
      },
      "transferFrom(address,address,uint256)": {
        "details": "See {IERC721-transferFrom}."
      }
    },
    "version": 1
  },
  "userdoc": {
    "kind": "user",
    "methods": {},
    "version": 1
  },
  "storageLayout": {
    "storage": [
      {
        "astId": 25,
        "contract": "contracts/SVGNFT.sol:SVGNFT",
        "label": "_name",
        "offset": 0,
        "slot": "0",
        "type": "t_string_storage"
      },
      {
        "astId": 27,
        "contract": "contracts/SVGNFT.sol:SVGNFT",
        "label": "_symbol",
        "offset": 0,
        "slot": "1",
        "type": "t_string_storage"
      },
      {
        "astId": 31,
        "contract": "contracts/SVGNFT.sol:SVGNFT",
        "label": "_owners",
        "offset": 0,
        "slot": "2",
        "type": "t_mapping(t_uint256,t_address)"
      },
      {
        "astId": 35,
        "contract": "contracts/SVGNFT.sol:SVGNFT",
        "label": "_balances",
        "offset": 0,
        "slot": "3",
        "type": "t_mapping(t_address,t_uint256)"
      },
      {
        "astId": 39,
        "contract": "contracts/SVGNFT.sol:SVGNFT",
        "label": "_tokenApprovals",
        "offset": 0,
        "slot": "4",
        "type": "t_mapping(t_uint256,t_address)"
      },
      {
        "astId": 45,
        "contract": "contracts/SVGNFT.sol:SVGNFT",
        "label": "_operatorApprovals",
        "offset": 0,
        "slot": "5",
        "type": "t_mapping(t_address,t_mapping(t_address,t_bool))"
      },
      {
        "astId": 1012,
        "contract": "contracts/SVGNFT.sol:SVGNFT",
        "label": "_tokenURIs",
        "offset": 0,
        "slot": "6",
        "type": "t_mapping(t_uint256,t_string_storage)"
      },
      {
        "astId": 1833,
        "contract": "contracts/SVGNFT.sol:SVGNFT",
        "label": "tokenCounter",
        "offset": 0,
        "slot": "7",
        "type": "t_uint256"
      }
    ],
    "types": {
      "t_address": {
        "encoding": "inplace",
        "label": "address",
        "numberOfBytes": "20"
      },
      "t_bool": {
        "encoding": "inplace",
        "label": "bool",
        "numberOfBytes": "1"
      },
      "t_mapping(t_address,t_bool)": {
        "encoding": "mapping",
        "key": "t_address",
        "label": "mapping(address => bool)",
        "numberOfBytes": "32",
        "value": "t_bool"
      },
      "t_mapping(t_address,t_mapping(t_address,t_bool))": {
        "encoding": "mapping",
        "key": "t_address",
        "label": "mapping(address => mapping(address => bool))",
        "numberOfBytes": "32",
        "value": "t_mapping(t_address,t_bool)"
      },
      "t_mapping(t_address,t_uint256)": {
        "encoding": "mapping",
        "key": "t_address",
        "label": "mapping(address => uint256)",
        "numberOfBytes": "32",
        "value": "t_uint256"
      },
      "t_mapping(t_uint256,t_address)": {
        "encoding": "mapping",
        "key": "t_uint256",
        "label": "mapping(uint256 => address)",
        "numberOfBytes": "32",
        "value": "t_address"
      },
      "t_mapping(t_uint256,t_string_storage)": {
        "encoding": "mapping",
        "key": "t_uint256",
        "label": "mapping(uint256 => string)",
        "numberOfBytes": "32",
        "value": "t_string_storage"
      },
      "t_string_storage": {
        "encoding": "bytes",
        "label": "string",
        "numberOfBytes": "32"
      },
      "t_uint256": {
        "encoding": "inplace",
        "label": "uint256",
        "numberOfBytes": "32"
      }
    }
  }
}